{
  "abi": [
    {
      "inputs": [
        {
          "internalType": "contract IERC721",
          "name": "_nftCollection",
          "type": "address"
        },
        {
          "internalType": "contract IERC20",
          "name": "_rewardsToken",
          "type": "address"
        }
      ],
      "stateMutability": "nonpayable",
      "type": "constructor"
    },
    {
      "inputs": [
        {
          "internalType": "address",
          "name": "_staker",
          "type": "address"
        }
      ],
      "name": "availableRewards",
      "outputs": [
        {
          "internalType": "uint256",
          "name": "",
          "type": "uint256"
        }
      ],
      "stateMutability": "view",
      "type": "function"
    },
    {
      "inputs": [],
      "name": "claimRewards",
      "outputs": [],
      "stateMutability": "nonpayable",
      "type": "function"
    },
    {
      "inputs": [
        {
          "internalType": "address",
          "name": "_user",
          "type": "address"
        }
      ],
      "name": "getStakedTokens",
      "outputs": [
        {
          "components": [
            {
              "internalType": "address",
              "name": "staker",
              "type": "address"
            },
            {
              "internalType": "uint256",
              "name": "tokenId",
              "type": "uint256"
            }
          ],
          "internalType": "struct ERC721Staking.StakedToken[]",
          "name": "",
          "type": "tuple[]"
        }
      ],
      "stateMutability": "view",
      "type": "function"
    },
    {
      "inputs": [],
      "name": "nftCollection",
      "outputs": [
        {
          "internalType": "contract IERC721",
          "name": "",
          "type": "address"
        }
      ],
      "stateMutability": "view",
      "type": "function"
    },
    {
      "inputs": [],
      "name": "rewardsToken",
      "outputs": [
        {
          "internalType": "contract IERC20",
          "name": "",
          "type": "address"
        }
      ],
      "stateMutability": "view",
      "type": "function"
    },
    {
      "inputs": [
        {
          "internalType": "uint256",
          "name": "_tokenId",
          "type": "uint256"
        }
      ],
      "name": "stake",
      "outputs": [],
      "stateMutability": "nonpayable",
      "type": "function"
    },
    {
      "inputs": [
        {
          "internalType": "uint256",
          "name": "",
          "type": "uint256"
        }
      ],
      "name": "stakerAddress",
      "outputs": [
        {
          "internalType": "address",
          "name": "",
          "type": "address"
        }
      ],
      "stateMutability": "view",
      "type": "function"
    },
    {
      "inputs": [
        {
          "internalType": "address",
          "name": "",
          "type": "address"
        }
      ],
      "name": "stakers",
      "outputs": [
        {
          "internalType": "uint256",
          "name": "amountStaked",
          "type": "uint256"
        },
        {
          "internalType": "uint256",
          "name": "timeOfLastUpdate",
          "type": "uint256"
        },
        {
          "internalType": "uint256",
          "name": "unclaimedRewards",
          "type": "uint256"
        }
      ],
      "stateMutability": "view",
      "type": "function"
    },
    {
      "inputs": [
        {
          "internalType": "uint256",
          "name": "_tokenId",
          "type": "uint256"
        }
      ],
      "name": "withdraw",
      "outputs": [],
      "stateMutability": "nonpayable",
      "type": "function"
    }
  ],
  "devdoc": {
    "kind": "dev",
    "methods": {},
    "version": 1
  },
  "evm": {
    "assembly": "    /* \"StakingContract.sol\":311:7463  contract ERC721Staking is ReentrancyGuard {... */\n  mstore(0x40, 0xc0)\n    /* \"StakingContract.sol\":1240:1246  100000 */\n  0x0186a0\n    /* \"StakingContract.sol\":1207:1246  uint256 private rewardsPerHour = 100000 */\n  0x01\n  sstore\n    /* \"StakingContract.sol\":1612:1758  constructor(IERC721 _nftCollection, IERC20 _rewardsToken) {... */\n  callvalue\n  dup1\n  iszero\n  tag_1\n  jumpi\n  0x00\n  dup1\n  revert\ntag_1:\n  pop\n  mload(0x40)\n  sub(codesize, bytecodeSize)\n  dup1\n  bytecodeSize\n  dup4\n  codecopy\n  dup2\n  add\n  0x40\n  dup2\n  swap1\n  mstore\n  tag_2\n  swap2\n  tag_3\n  jump\t// in\ntag_2:\n    /* \"@openzeppelin/contracts/security/ReentrancyGuard.sol\":1701:1702   */\n  0x01\n    /* \"@openzeppelin/contracts/security/ReentrancyGuard.sol\":1806:1813   */\n  0x00\n    /* \"@openzeppelin/contracts/security/ReentrancyGuard.sol\":1806:1828   */\n  sstore\n  sub(shl(0xa0, 0x01), 0x01)\n    /* \"StakingContract.sol\":1681:1711  nftCollection = _nftCollection */\n  swap2\n  dup3\n  and\n  0xa0\n  mstore\n    /* \"StakingContract.sol\":1722:1750  rewardsToken = _rewardsToken */\n  and\n  0x80\n  mstore\n    /* \"StakingContract.sol\":311:7463  contract ERC721Staking is ReentrancyGuard {... */\n  jump(tag_10)\n    /* \"#utility.yul\":14:154   */\ntag_9:\n  sub(shl(0xa0, 0x01), 0x01)\n    /* \"#utility.yul\":98:129   */\n  dup2\n  and\n    /* \"#utility.yul\":88:130   */\n  dup2\n  eq\n    /* \"#utility.yul\":78:148   */\n  tag_12\n  jumpi\n    /* \"#utility.yul\":144:145   */\n  0x00\n    /* \"#utility.yul\":141:142   */\n  dup1\n    /* \"#utility.yul\":134:146   */\n  revert\n    /* \"#utility.yul\":78:148   */\ntag_12:\n    /* \"#utility.yul\":14:154   */\n  pop\n  jump\t// out\n    /* \"#utility.yul\":159:592   */\ntag_3:\n    /* \"#utility.yul\":268:274   */\n  0x00\n    /* \"#utility.yul\":276:282   */\n  dup1\n    /* \"#utility.yul\":329:331   */\n  0x40\n    /* \"#utility.yul\":317:326   */\n  dup4\n    /* \"#utility.yul\":308:315   */\n  dup6\n    /* \"#utility.yul\":304:327   */\n  sub\n    /* \"#utility.yul\":300:332   */\n  slt\n    /* \"#utility.yul\":297:349   */\n  iszero\n  tag_14\n  jumpi\n    /* \"#utility.yul\":345:346   */\n  0x00\n    /* \"#utility.yul\":342:343   */\n  dup1\n    /* \"#utility.yul\":335:347   */\n  revert\n    /* \"#utility.yul\":297:349   */\ntag_14:\n    /* \"#utility.yul\":377:386   */\n  dup3\n    /* \"#utility.yul\":371:387   */\n  mload\n    /* \"#utility.yul\":396:436   */\n  tag_15\n    /* \"#utility.yul\":430:435   */\n  dup2\n    /* \"#utility.yul\":396:436   */\n  tag_9\n  jump\t// in\ntag_15:\n    /* \"#utility.yul\":505:507   */\n  0x20\n    /* \"#utility.yul\":490:508   */\n  dup5\n  add\n    /* \"#utility.yul\":484:509   */\n  mload\n    /* \"#utility.yul\":455:460   */\n  swap1\n  swap3\n  pop\n    /* \"#utility.yul\":518:560   */\n  tag_16\n    /* \"#utility.yul\":484:509   */\n  dup2\n    /* \"#utility.yul\":518:560   */\n  tag_9\n  jump\t// in\ntag_16:\n    /* \"#utility.yul\":579:586   */\n  dup1\n    /* \"#utility.yul\":569:586   */\n  swap2\n  pop\n  pop\n    /* \"#utility.yul\":159:592   */\n  swap3\n  pop\n  swap3\n  swap1\n  pop\n  jump\t// out\ntag_10:\n    /* \"StakingContract.sol\":311:7463  contract ERC721Staking is ReentrancyGuard {... */\n  mload(0x80)\n  mload(0xa0)\n  codecopy(0x00, dataOffset(sub_0), dataSize(sub_0))\n  0x00\n  assignImmutable(\"0x8e8fab5f003314da8d1873ea7720e8d9f47650136d916064d1edb8a11d682624\")\n  0x00\n  assignImmutable(\"0x5c4c6aa067b6f8e6cb38e6ab843832a94d1712d661a04d73c517d6a1931a9e5d\")\n  return(0x00, dataSize(sub_0))\nstop\n\nsub_0: assembly {\n        /* \"StakingContract.sol\":311:7463  contract ERC721Staking is ReentrancyGuard {... */\n      mstore(0x40, 0x80)\n      callvalue\n      dup1\n      iszero\n      tag_1\n      jumpi\n      0x00\n      dup1\n      revert\n    tag_1:\n      pop\n      jumpi(tag_2, lt(calldatasize, 0x04))\n      shr(0xe0, calldataload(0x00))\n      dup1\n      0x9168ae72\n      gt\n      tag_12\n      jumpi\n      dup1\n      0xa694fc3a\n      gt\n      tag_13\n      jumpi\n      dup1\n      0xa694fc3a\n      eq\n      tag_9\n      jumpi\n      dup1\n      0xd1af0c7d\n      eq\n      tag_10\n      jumpi\n      dup1\n      0xf854a27f\n      eq\n      tag_11\n      jumpi\n      0x00\n      dup1\n      revert\n    tag_13:\n      dup1\n      0x9168ae72\n      eq\n      tag_7\n      jumpi\n      dup1\n      0x94067045\n      eq\n      tag_8\n      jumpi\n      0x00\n      dup1\n      revert\n    tag_12:\n      dup1\n      0x2e1a7d4d\n      eq\n      tag_3\n      jumpi\n      dup1\n      0x372500ab\n      eq\n      tag_4\n      jumpi\n      dup1\n      0x63c28db1\n      eq\n      tag_5\n      jumpi\n      dup1\n      0x6588103b\n      eq\n      tag_6\n      jumpi\n    tag_2:\n      0x00\n      dup1\n      revert\n        /* \"StakingContract.sol\":3535:5297  function withdraw(uint256 _tokenId) external nonReentrant {... */\n    tag_3:\n      tag_14\n      tag_15\n      calldatasize\n      0x04\n      tag_16\n      jump\t// in\n    tag_15:\n      tag_17\n      jump\t// in\n    tag_14:\n      stop\n        /* \"StakingContract.sol\":5482:5868  function claimRewards() external {... */\n    tag_4:\n      tag_14\n      tag_19\n      jump\t// in\n        /* \"StakingContract.sol\":6371:7236  function getStakedTokens(address _user) public view returns (StakedToken[] memory) {... */\n    tag_5:\n      tag_20\n      tag_21\n      calldatasize\n      0x04\n      tag_22\n      jump\t// in\n    tag_21:\n      tag_23\n      jump\t// in\n    tag_20:\n      mload(0x40)\n      tag_24\n      swap2\n      swap1\n      tag_25\n      jump\t// in\n    tag_24:\n      mload(0x40)\n      dup1\n      swap2\n      sub\n      swap1\n      return\n        /* \"StakingContract.sol\":523:561  IERC721 public immutable nftCollection */\n    tag_6:\n      tag_26\n      immutable(\"0x8e8fab5f003314da8d1873ea7720e8d9f47650136d916064d1edb8a11d682624\")\n      dup2\n      jump\n    tag_26:\n      mload(0x40)\n      sub(shl(0xa0, 0x01), 0x01)\n        /* \"#utility.yul\":1636:1691   */\n      swap1\n      swap2\n      and\n        /* \"#utility.yul\":1618:1692   */\n      dup2\n      mstore\n        /* \"#utility.yul\":1606:1608   */\n      0x20\n        /* \"#utility.yul\":1591:1609   */\n      add\n        /* \"StakingContract.sol\":523:561  IERC721 public immutable nftCollection */\n      tag_24\n        /* \"#utility.yul\":1456:1698   */\n      jump\n        /* \"StakingContract.sol\":1302:1343  mapping(address => Staker) public stakers */\n    tag_7:\n      tag_30\n      tag_31\n      calldatasize\n      0x04\n      tag_22\n      jump\t// in\n    tag_31:\n      0x02\n      0x20\n      dup2\n      swap1\n      mstore\n      0x00\n      swap2\n      dup3\n      mstore\n      0x40\n      swap1\n      swap2\n      keccak256\n      dup1\n      sload\n      swap2\n      dup2\n      add\n      sload\n      0x03\n      swap1\n      swap2\n      add\n      sload\n      dup4\n      jump\n    tag_30:\n      0x40\n      dup1\n      mload\n        /* \"#utility.yul\":1905:1930   */\n      swap4\n      dup5\n      mstore\n        /* \"#utility.yul\":1961:1963   */\n      0x20\n        /* \"#utility.yul\":1946:1964   */\n      dup5\n      add\n        /* \"#utility.yul\":1939:1973   */\n      swap3\n      swap1\n      swap3\n      mstore\n        /* \"#utility.yul\":1989:2007   */\n      swap1\n      dup3\n      add\n        /* \"#utility.yul\":1982:2016   */\n      mstore\n        /* \"#utility.yul\":1893:1895   */\n      0x60\n        /* \"#utility.yul\":1878:1896   */\n      add\n        /* \"StakingContract.sol\":1302:1343  mapping(address => Staker) public stakers */\n      tag_24\n        /* \"#utility.yul\":1703:2022   */\n      jump\n        /* \"StakingContract.sol\":1464:1512  mapping(uint256 => address) public stakerAddress */\n    tag_8:\n      tag_26\n      tag_36\n      calldatasize\n      0x04\n      tag_16\n      jump\t// in\n    tag_36:\n      mstore(0x20, 0x03)\n      0x00\n      swap1\n      dup2\n      mstore\n      0x40\n      swap1\n      keccak256\n      sload\n      sub(shl(0xa0, 0x01), 0x01)\n      and\n      dup2\n      jump\n        /* \"StakingContract.sol\":2032:3286  function stake(uint256 _tokenId) external nonReentrant {... */\n    tag_9:\n      tag_14\n      tag_41\n      calldatasize\n      0x04\n      tag_16\n      jump\t// in\n    tag_41:\n      tag_42\n      jump\t// in\n        /* \"StakingContract.sol\":484:520  IERC20 public immutable rewardsToken */\n    tag_10:\n      tag_26\n      immutable(\"0x5c4c6aa067b6f8e6cb38e6ab843832a94d1712d661a04d73c517d6a1931a9e5d\")\n      dup2\n      jump\n        /* \"StakingContract.sol\":7245:7454  function availableRewards(address _staker) public view returns (uint256) {... */\n    tag_11:\n      tag_47\n      tag_48\n      calldatasize\n      0x04\n      tag_22\n      jump\t// in\n    tag_48:\n      tag_49\n      jump\t// in\n    tag_47:\n      mload(0x40)\n        /* \"#utility.yul\":2649:2674   */\n      swap1\n      dup2\n      mstore\n        /* \"#utility.yul\":2637:2639   */\n      0x20\n        /* \"#utility.yul\":2622:2640   */\n      add\n        /* \"StakingContract.sol\":7245:7454  function availableRewards(address _staker) public view returns (uint256) {... */\n      tag_24\n        /* \"#utility.yul\":2503:2680   */\n      jump\n        /* \"StakingContract.sol\":3535:5297  function withdraw(uint256 _tokenId) external nonReentrant {... */\n    tag_17:\n        /* \"@openzeppelin/contracts/security/ReentrancyGuard.sol\":1744:1745   */\n      0x02\n        /* \"@openzeppelin/contracts/security/ReentrancyGuard.sol\":2325:2332   */\n      sload(0x00)\n        /* \"@openzeppelin/contracts/security/ReentrancyGuard.sol\":2325:2344   */\n      sub\n        /* \"@openzeppelin/contracts/security/ReentrancyGuard.sol\":2317:2380   */\n      tag_53\n      jumpi\n      mload(0x40)\n      shl(0xe5, 0x461bcd)\n      dup2\n      mstore\n        /* \"#utility.yul\":2887:2889   */\n      0x20\n        /* \"@openzeppelin/contracts/security/ReentrancyGuard.sol\":2317:2380   */\n      0x04\n      dup3\n      add\n        /* \"#utility.yul\":2869:2890   */\n      mstore\n        /* \"#utility.yul\":2926:2928   */\n      0x1f\n        /* \"#utility.yul\":2906:2924   */\n      0x24\n      dup3\n      add\n        /* \"#utility.yul\":2899:2929   */\n      mstore\n        /* \"#utility.yul\":2965:2998   */\n      0x5265656e7472616e637947756172643a207265656e7472616e742063616c6c00\n        /* \"#utility.yul\":2945:2963   */\n      0x44\n      dup3\n      add\n        /* \"#utility.yul\":2938:2999   */\n      mstore\n        /* \"#utility.yul\":3016:3034   */\n      0x64\n      add\n        /* \"@openzeppelin/contracts/security/ReentrancyGuard.sol\":2317:2380   */\n    tag_54:\n      mload(0x40)\n      dup1\n      swap2\n      sub\n      swap1\n      revert\n    tag_53:\n        /* \"@openzeppelin/contracts/security/ReentrancyGuard.sol\":1744:1745   */\n      0x02\n        /* \"@openzeppelin/contracts/security/ReentrancyGuard.sol\":2455:2462   */\n      0x00\n        /* \"@openzeppelin/contracts/security/ReentrancyGuard.sol\":2455:2473   */\n      dup2\n      dup2\n      sstore\n        /* \"StakingContract.sol\":3714:3724  msg.sender */\n      caller\n        /* \"StakingContract.sol\":3706:3725  stakers[msg.sender] */\n      dup2\n      mstore\n      0x20\n      swap2\n      swap1\n      swap2\n      mstore\n      0x40\n      swap1\n      keccak256\n        /* \"StakingContract.sol\":3706:3738  stakers[msg.sender].amountStaked */\n      sload\n        /* \"StakingContract.sol\":3684:3795  require(... */\n      tag_57\n      jumpi\n      mload(0x40)\n      shl(0xe5, 0x461bcd)\n      dup2\n      mstore\n        /* \"#utility.yul\":3247:3249   */\n      0x20\n        /* \"StakingContract.sol\":3684:3795  require(... */\n      0x04\n      dup3\n      add\n        /* \"#utility.yul\":3229:3250   */\n      mstore\n        /* \"#utility.yul\":3286:3288   */\n      0x19\n        /* \"#utility.yul\":3266:3284   */\n      0x24\n      dup3\n      add\n        /* \"#utility.yul\":3259:3289   */\n      mstore\n        /* \"#utility.yul\":3325:3352   */\n      0x596f752068617665206e6f20746f6b656e73207374616b656400000000000000\n        /* \"#utility.yul\":3305:3323   */\n      0x44\n      dup3\n      add\n        /* \"#utility.yul\":3298:3353   */\n      mstore\n        /* \"#utility.yul\":3370:3388   */\n      0x64\n      add\n        /* \"StakingContract.sol\":3684:3795  require(... */\n      tag_54\n        /* \"#utility.yul\":3045:3394   */\n      jump\n        /* \"StakingContract.sol\":3684:3795  require(... */\n    tag_57:\n        /* \"StakingContract.sol\":3882:3905  stakerAddress[_tokenId] */\n      0x00\n      dup2\n      dup2\n      mstore\n        /* \"StakingContract.sol\":3882:3895  stakerAddress */\n      0x03\n        /* \"StakingContract.sol\":3882:3905  stakerAddress[_tokenId] */\n      0x20\n      mstore\n      0x40\n      swap1\n      keccak256\n      sload\n      sub(shl(0xa0, 0x01), 0x01)\n      and\n        /* \"StakingContract.sol\":3909:3919  msg.sender */\n      caller\n        /* \"StakingContract.sol\":3882:3919  stakerAddress[_tokenId] == msg.sender */\n      eq\n        /* \"StakingContract.sol\":3874:3949  require(stakerAddress[_tokenId] == msg.sender, \"You don't own this token!\") */\n      tag_60\n      jumpi\n      mload(0x40)\n      shl(0xe5, 0x461bcd)\n      dup2\n      mstore\n        /* \"#utility.yul\":3601:3603   */\n      0x20\n        /* \"StakingContract.sol\":3874:3949  require(stakerAddress[_tokenId] == msg.sender, \"You don't own this token!\") */\n      0x04\n      dup3\n      add\n        /* \"#utility.yul\":3583:3604   */\n      mstore\n        /* \"#utility.yul\":3640:3642   */\n      0x19\n        /* \"#utility.yul\":3620:3638   */\n      0x24\n      dup3\n      add\n        /* \"#utility.yul\":3613:3643   */\n      mstore\n        /* \"#utility.yul\":3679:3706   */\n      0x596f7520646f6e2774206f776e207468697320746f6b656e2100000000000000\n        /* \"#utility.yul\":3659:3677   */\n      0x44\n      dup3\n      add\n        /* \"#utility.yul\":3652:3707   */\n      mstore\n        /* \"#utility.yul\":3724:3742   */\n      0x64\n      add\n        /* \"StakingContract.sol\":3874:3949  require(stakerAddress[_tokenId] == msg.sender, \"You don't own this token!\") */\n      tag_54\n        /* \"#utility.yul\":3399:3748   */\n      jump\n        /* \"StakingContract.sol\":3874:3949  require(stakerAddress[_tokenId] == msg.sender, \"You don't own this token!\") */\n    tag_60:\n        /* \"StakingContract.sol\":4061:4076  uint256 rewards */\n      0x00\n        /* \"StakingContract.sol\":4079:4107  calculateRewards(msg.sender) */\n      tag_63\n        /* \"StakingContract.sol\":4096:4106  msg.sender */\n      caller\n        /* \"StakingContract.sol\":4079:4095  calculateRewards */\n      tag_64\n        /* \"StakingContract.sol\":4079:4107  calculateRewards(msg.sender) */\n      jump\t// in\n    tag_63:\n        /* \"StakingContract.sol\":4126:4136  msg.sender */\n      caller\n        /* \"StakingContract.sol\":4118:4137  stakers[msg.sender] */\n      0x00\n      swap1\n      dup2\n      mstore\n        /* \"StakingContract.sol\":4118:4125  stakers */\n      0x02\n        /* \"StakingContract.sol\":4118:4137  stakers[msg.sender] */\n      0x20\n      mstore\n      0x40\n      dup2\n      keccak256\n        /* \"StakingContract.sol\":4118:4154  stakers[msg.sender].unclaimedRewards */\n      0x03\n      add\n        /* \"StakingContract.sol\":4118:4165  stakers[msg.sender].unclaimedRewards += rewards */\n      dup1\n      sload\n        /* \"StakingContract.sol\":4061:4107  uint256 rewards = calculateRewards(msg.sender) */\n      swap3\n      swap4\n      pop\n      dup4\n      swap3\n        /* \"StakingContract.sol\":4118:4154  stakers[msg.sender].unclaimedRewards */\n      swap1\n      swap2\n        /* \"StakingContract.sol\":4118:4137  stakers[msg.sender] */\n      swap1\n        /* \"StakingContract.sol\":4118:4165  stakers[msg.sender].unclaimedRewards += rewards */\n      tag_65\n      swap1\n        /* \"StakingContract.sol\":4061:4107  uint256 rewards = calculateRewards(msg.sender) */\n      dup5\n      swap1\n        /* \"StakingContract.sol\":4118:4165  stakers[msg.sender].unclaimedRewards += rewards */\n      tag_66\n      jump\t// in\n    tag_65:\n      swap1\n      swap2\n      sstore\n      pop\n        /* \"StakingContract.sol\":4248:4261  uint256 index */\n      0x00\n      swap1\n      pop\n      dup1\n        /* \"StakingContract.sol\":4276:4609  for (uint256 i = 0; i < stakers[msg.sender].stakedTokens.length; i++) {... */\n    tag_67:\n        /* \"StakingContract.sol\":4308:4318  msg.sender */\n      caller\n        /* \"StakingContract.sol\":4300:4319  stakers[msg.sender] */\n      0x00\n      swap1\n      dup2\n      mstore\n        /* \"StakingContract.sol\":4300:4307  stakers */\n      0x02\n        /* \"StakingContract.sol\":4300:4319  stakers[msg.sender] */\n      0x20\n      mstore\n      0x40\n      swap1\n      keccak256\n        /* \"StakingContract.sol\":4300:4332  stakers[msg.sender].stakedTokens */\n      0x01\n      add\n        /* \"StakingContract.sol\":4300:4339  stakers[msg.sender].stakedTokens.length */\n      sload\n        /* \"StakingContract.sol\":4296:4339  i < stakers[msg.sender].stakedTokens.length */\n      dup2\n      lt\n        /* \"StakingContract.sol\":4276:4609  for (uint256 i = 0; i < stakers[msg.sender].stakedTokens.length; i++) {... */\n      iszero\n      tag_68\n      jumpi\n        /* \"StakingContract.sol\":4373:4383  msg.sender */\n      caller\n        /* \"StakingContract.sol\":4365:4384  stakers[msg.sender] */\n      0x00\n      swap1\n      dup2\n      mstore\n        /* \"StakingContract.sol\":4365:4372  stakers */\n      0x02\n        /* \"StakingContract.sol\":4365:4384  stakers[msg.sender] */\n      0x20\n      mstore\n      0x40\n      swap1\n      keccak256\n        /* \"StakingContract.sol\":4365:4397  stakers[msg.sender].stakedTokens */\n      0x01\n      add\n        /* \"StakingContract.sol\":4365:4400  stakers[msg.sender].stakedTokens[i] */\n      dup1\n      sload\n        /* \"StakingContract.sol\":4412:4420  _tokenId */\n      dup6\n      swap2\n        /* \"StakingContract.sol\":4365:4397  stakers[msg.sender].stakedTokens */\n      swap1\n        /* \"StakingContract.sol\":4398:4399  i */\n      dup4\n      swap1\n        /* \"StakingContract.sol\":4365:4400  stakers[msg.sender].stakedTokens[i] */\n      dup2\n      lt\n      tag_71\n      jumpi\n      tag_71\n      tag_72\n      jump\t// in\n    tag_71:\n      swap1\n      0x00\n      mstore\n      keccak256(0x00, 0x20)\n      swap1\n      0x02\n      mul\n      add\n        /* \"StakingContract.sol\":4365:4408  stakers[msg.sender].stakedTokens[i].tokenId */\n      0x01\n      add\n      sload\n        /* \"StakingContract.sol\":4365:4420  stakers[msg.sender].stakedTokens[i].tokenId == _tokenId */\n      eq\n        /* \"StakingContract.sol\":4365:4514  stakers[msg.sender].stakedTokens[i].tokenId == _tokenId... */\n      dup1\n      iszero\n      tag_74\n      jumpi\n      pop\n        /* \"StakingContract.sol\":4466:4476  msg.sender */\n      caller\n        /* \"StakingContract.sol\":4512:4513  0 */\n      0x00\n        /* \"StakingContract.sol\":4458:4477  stakers[msg.sender] */\n      swap1\n      dup2\n      mstore\n        /* \"StakingContract.sol\":4458:4465  stakers */\n      0x02\n        /* \"StakingContract.sol\":4458:4477  stakers[msg.sender] */\n      0x20\n      mstore\n      0x40\n      dup2\n      keccak256\n        /* \"StakingContract.sol\":4458:4490  stakers[msg.sender].stakedTokens */\n      0x01\n      add\n        /* \"StakingContract.sol\":4458:4493  stakers[msg.sender].stakedTokens[i] */\n      dup1\n      sload\n        /* \"StakingContract.sol\":4491:4492  i */\n      dup4\n      swap1\n        /* \"StakingContract.sol\":4458:4493  stakers[msg.sender].stakedTokens[i] */\n      dup2\n      lt\n      tag_76\n      jumpi\n      tag_76\n      tag_72\n      jump\t// in\n    tag_76:\n      0x00\n      swap2\n      dup3\n      mstore\n      0x20\n      swap1\n      swap2\n      keccak256\n      0x02\n      swap1\n      swap2\n      mul\n      add\n        /* \"StakingContract.sol\":4458:4500  stakers[msg.sender].stakedTokens[i].staker */\n      sload\n      sub(shl(0xa0, 0x01), 0x01)\n      and\n        /* \"StakingContract.sol\":4458:4514  stakers[msg.sender].stakedTokens[i].staker != address(0) */\n      eq\n      iszero\n        /* \"StakingContract.sol\":4365:4514  stakers[msg.sender].stakedTokens[i].tokenId == _tokenId... */\n    tag_74:\n        /* \"StakingContract.sol\":4361:4598  if (stakers[msg.sender].stakedTokens[i].tokenId == _tokenId... */\n      iszero\n      tag_78\n      jumpi\n        /* \"StakingContract.sol\":4557:4558  i */\n      dup1\n        /* \"StakingContract.sol\":4549:4558  index = i */\n      swap2\n      pop\n        /* \"StakingContract.sol\":4577:4582  break */\n      jump(tag_68)\n        /* \"StakingContract.sol\":4361:4598  if (stakers[msg.sender].stakedTokens[i].tokenId == _tokenId... */\n    tag_78:\n        /* \"StakingContract.sol\":4341:4344  i++ */\n      dup1\n      tag_79\n      dup2\n      tag_80\n      jump\t// in\n    tag_79:\n      swap2\n      pop\n      pop\n        /* \"StakingContract.sol\":4276:4609  for (uint256 i = 0; i < stakers[msg.sender].stakedTokens.length; i++) {... */\n      jump(tag_67)\n    tag_68:\n      pop\n        /* \"StakingContract.sol\":4713:4723  msg.sender */\n      caller\n        /* \"StakingContract.sol\":4762:4763  0 */\n      0x00\n        /* \"StakingContract.sol\":4705:4724  stakers[msg.sender] */\n      swap1\n      dup2\n      mstore\n        /* \"StakingContract.sol\":4705:4712  stakers */\n      0x02\n        /* \"StakingContract.sol\":4705:4724  stakers[msg.sender] */\n      0x20\n      mstore\n      0x40\n      dup2\n      keccak256\n        /* \"StakingContract.sol\":4705:4737  stakers[msg.sender].stakedTokens */\n      0x01\n      add\n        /* \"StakingContract.sol\":4705:4744  stakers[msg.sender].stakedTokens[index] */\n      dup1\n      sload\n        /* \"StakingContract.sol\":4738:4743  index */\n      dup4\n      swap1\n        /* \"StakingContract.sol\":4705:4744  stakers[msg.sender].stakedTokens[index] */\n      dup2\n      lt\n      tag_82\n      jumpi\n      tag_82\n      tag_72\n      jump\t// in\n    tag_82:\n      0x00\n      swap2\n      dup3\n      mstore\n      0x20\n      dup1\n      dup4\n      keccak256\n      0x02\n      swap3\n      dup4\n      mul\n      add\n        /* \"StakingContract.sol\":4705:4764  stakers[msg.sender].stakedTokens[index].staker = address(0) */\n      dup1\n      sload\n      not(sub(shl(0xa0, 0x01), 0x01))\n      and\n      sub(shl(0xa0, 0x01), 0x01)\n      swap6\n      swap1\n      swap6\n      and\n      swap5\n      swap1\n      swap5\n      or\n      swap1\n      swap4\n      sstore\n        /* \"StakingContract.sol\":4841:4851  msg.sender */\n      caller\n        /* \"StakingContract.sol\":4833:4852  stakers[msg.sender] */\n      dup3\n      mstore\n      swap1\n      swap2\n      mstore\n      0x40\n      dup2\n      keccak256\n        /* \"StakingContract.sol\":4833:4867  stakers[msg.sender].amountStaked-- */\n      dup1\n      sload\n      swap2\n      tag_84\n      dup4\n      tag_85\n      jump\t// in\n    tag_84:\n      swap1\n      swap2\n      sstore\n      pop\n      pop\n        /* \"StakingContract.sol\":5028:5029  0 */\n      0x00\n        /* \"StakingContract.sol\":4994:5017  stakerAddress[_tokenId] */\n      dup4\n      dup2\n      mstore\n        /* \"StakingContract.sol\":4994:5007  stakerAddress */\n      0x03\n        /* \"StakingContract.sol\":4994:5017  stakerAddress[_tokenId] */\n      0x20\n      mstore\n      0x40\n      swap1\n      dup2\n      swap1\n      keccak256\n        /* \"StakingContract.sol\":4994:5030  stakerAddress[_tokenId] = address(0) */\n      dup1\n      sload\n      not(sub(shl(0xa0, 0x01), 0x01))\n      and\n      swap1\n      sstore\n        /* \"StakingContract.sol\":5097:5160  nftCollection.transferFrom(address(this), msg.sender, _tokenId) */\n      mload\n      shl(0xe0, 0x23b872dd)\n      dup2\n      mstore\n        /* \"StakingContract.sol\":5132:5136  this */\n      address\n        /* \"StakingContract.sol\":5097:5160  nftCollection.transferFrom(address(this), msg.sender, _tokenId) */\n      0x04\n      dup3\n      add\n        /* \"#utility.yul\":4694:4728   */\n      mstore\n        /* \"StakingContract.sol\":5139:5149  msg.sender */\n      caller\n        /* \"#utility.yul\":4744:4762   */\n      0x24\n      dup3\n      add\n        /* \"#utility.yul\":4737:4780   */\n      mstore\n        /* \"#utility.yul\":4796:4814   */\n      0x44\n      dup2\n      add\n        /* \"#utility.yul\":4789:4823   */\n      dup5\n      swap1\n      mstore\n      sub(shl(0xa0, 0x01), 0x01)\n        /* \"StakingContract.sol\":5097:5110  nftCollection */\n      immutable(\"0x8e8fab5f003314da8d1873ea7720e8d9f47650136d916064d1edb8a11d682624\")\n        /* \"StakingContract.sol\":5097:5123  nftCollection.transferFrom */\n      and\n      swap1\n      0x23b872dd\n      swap1\n        /* \"#utility.yul\":4606:4624   */\n      0x64\n      add\n        /* \"StakingContract.sol\":5097:5160  nftCollection.transferFrom(address(this), msg.sender, _tokenId) */\n      0x00\n      mload(0x40)\n      dup1\n      dup4\n      sub\n      dup2\n      0x00\n      dup8\n      dup1\n      extcodesize\n      iszero\n      dup1\n      iszero\n      tag_88\n      jumpi\n      0x00\n      dup1\n      revert\n    tag_88:\n      pop\n      gas\n      call\n      iszero\n      dup1\n      iszero\n      tag_90\n      jumpi\n      returndatasize\n      0x00\n      dup1\n      returndatacopy\n      revert(0x00, returndatasize)\n    tag_90:\n      pop\n      pop\n        /* \"StakingContract.sol\":5243:5253  msg.sender */\n      caller\n        /* \"StakingContract.sol\":5235:5254  stakers[msg.sender] */\n      0x00\n      swap1\n      dup2\n      mstore\n        /* \"StakingContract.sol\":5235:5242  stakers */\n      0x02\n        /* \"StakingContract.sol\":5235:5254  stakers[msg.sender] */\n      0x20\n      dup2\n      swap1\n      mstore\n      0x40\n      dup3\n      keccak256\n        /* \"StakingContract.sol\":5274:5289  block.timestamp */\n      timestamp\n        /* \"StakingContract.sol\":5235:5271  stakers[msg.sender].timeOfLastUpdate */\n      swap2\n      add\n        /* \"StakingContract.sol\":5235:5289  stakers[msg.sender].timeOfLastUpdate = block.timestamp */\n      sstore\n        /* \"@openzeppelin/contracts/security/ReentrancyGuard.sol\":1701:1702   */\n      0x01\n        /* \"@openzeppelin/contracts/security/ReentrancyGuard.sol\":2628:2650   */\n      swap1\n      sstore\n      pop\n      pop\n      pop\n      pop\n      pop\n        /* \"StakingContract.sol\":3535:5297  function withdraw(uint256 _tokenId) external nonReentrant {... */\n      jump\t// out\n        /* \"StakingContract.sol\":5482:5868  function claimRewards() external {... */\n    tag_19:\n        /* \"StakingContract.sol\":5596:5606  msg.sender */\n      caller\n        /* \"StakingContract.sol\":5526:5541  uint256 rewards */\n      0x00\n        /* \"StakingContract.sol\":5588:5607  stakers[msg.sender] */\n      dup2\n      dup2\n      mstore\n        /* \"StakingContract.sol\":5588:5595  stakers */\n      0x02\n        /* \"StakingContract.sol\":5588:5607  stakers[msg.sender] */\n      0x20\n      mstore\n      0x40\n      dup2\n      keccak256\n        /* \"StakingContract.sol\":5588:5624  stakers[msg.sender].unclaimedRewards */\n      0x03\n      add\n      sload\n        /* \"StakingContract.sol\":5526:5541  uint256 rewards */\n      swap1\n      swap2\n        /* \"StakingContract.sol\":5544:5572  calculateRewards(msg.sender) */\n      tag_92\n      swap1\n        /* \"StakingContract.sol\":5544:5560  calculateRewards */\n      tag_64\n        /* \"StakingContract.sol\":5544:5572  calculateRewards(msg.sender) */\n      jump\t// in\n    tag_92:\n        /* \"StakingContract.sol\":5544:5624  calculateRewards(msg.sender) +... */\n      tag_93\n      swap2\n      swap1\n      tag_66\n      jump\t// in\n    tag_93:\n        /* \"StakingContract.sol\":5526:5624  uint256 rewards = calculateRewards(msg.sender) +... */\n      swap1\n      pop\n        /* \"StakingContract.sol\":5653:5654  0 */\n      0x00\n        /* \"StakingContract.sol\":5643:5650  rewards */\n      dup2\n        /* \"StakingContract.sol\":5643:5654  rewards > 0 */\n      gt\n        /* \"StakingContract.sol\":5635:5687  require(rewards > 0, \"You have no rewards to claim\") */\n      tag_94\n      jumpi\n      mload(0x40)\n      shl(0xe5, 0x461bcd)\n      dup2\n      mstore\n        /* \"#utility.yul\":5036:5038   */\n      0x20\n        /* \"StakingContract.sol\":5635:5687  require(rewards > 0, \"You have no rewards to claim\") */\n      0x04\n      dup3\n      add\n        /* \"#utility.yul\":5018:5039   */\n      mstore\n        /* \"#utility.yul\":5075:5077   */\n      0x1c\n        /* \"#utility.yul\":5055:5073   */\n      0x24\n      dup3\n      add\n        /* \"#utility.yul\":5048:5078   */\n      mstore\n        /* \"#utility.yul\":5114:5144   */\n      0x596f752068617665206e6f207265776172647320746f20636c61696d00000000\n        /* \"#utility.yul\":5094:5112   */\n      0x44\n      dup3\n      add\n        /* \"#utility.yul\":5087:5145   */\n      mstore\n        /* \"#utility.yul\":5162:5180   */\n      0x64\n      add\n        /* \"StakingContract.sol\":5635:5687  require(rewards > 0, \"You have no rewards to claim\") */\n      tag_54\n        /* \"#utility.yul\":4834:5186   */\n      jump\n        /* \"StakingContract.sol\":5635:5687  require(rewards > 0, \"You have no rewards to claim\") */\n    tag_94:\n        /* \"StakingContract.sol\":5706:5716  msg.sender */\n      caller\n        /* \"StakingContract.sol\":5698:5717  stakers[msg.sender] */\n      0x00\n      dup2\n      dup2\n      mstore\n        /* \"StakingContract.sol\":5698:5705  stakers */\n      0x02\n        /* \"StakingContract.sol\":5698:5717  stakers[msg.sender] */\n      0x20\n      dup2\n      swap1\n      mstore\n      0x40\n      dup3\n      keccak256\n        /* \"StakingContract.sol\":5737:5752  block.timestamp */\n      timestamp\n        /* \"StakingContract.sol\":5698:5734  stakers[msg.sender].timeOfLastUpdate */\n      swap2\n      dup2\n      add\n        /* \"StakingContract.sol\":5698:5752  stakers[msg.sender].timeOfLastUpdate = block.timestamp */\n      swap2\n      swap1\n      swap2\n      sstore\n        /* \"StakingContract.sol\":5763:5799  stakers[msg.sender].unclaimedRewards */\n      0x03\n      add\n        /* \"StakingContract.sol\":5763:5803  stakers[msg.sender].unclaimedRewards = 0 */\n      sstore\n        /* \"StakingContract.sol\":5814:5860  rewardsToken.safeTransfer(msg.sender, rewards) */\n      tag_97\n      swap1\n        /* \"StakingContract.sol\":5814:5826  rewardsToken */\n      immutable(\"0x5c4c6aa067b6f8e6cb38e6ab843832a94d1712d661a04d73c517d6a1931a9e5d\")\n      sub(shl(0xa0, 0x01), 0x01)\n        /* \"StakingContract.sol\":5814:5839  rewardsToken.safeTransfer */\n      and\n      swap1\n        /* \"StakingContract.sol\":5852:5859  rewards */\n      dup4\n        /* \"StakingContract.sol\":5814:5839  rewardsToken.safeTransfer */\n      tag_98\n        /* \"StakingContract.sol\":5814:5860  rewardsToken.safeTransfer(msg.sender, rewards) */\n      jump\t// in\n    tag_97:\n        /* \"StakingContract.sol\":5515:5868  {... */\n      pop\n        /* \"StakingContract.sol\":5482:5868  function claimRewards() external {... */\n      jump\t// out\n        /* \"StakingContract.sol\":6371:7236  function getStakedTokens(address _user) public view returns (StakedToken[] memory) {... */\n    tag_23:\n      sub(shl(0xa0, 0x01), 0x01)\n        /* \"StakingContract.sol\":6508:6522  stakers[_user] */\n      dup2\n      and\n        /* \"StakingContract.sol\":6538:6539  0 */\n      0x00\n        /* \"StakingContract.sol\":6508:6522  stakers[_user] */\n      swap1\n      dup2\n      mstore\n        /* \"StakingContract.sol\":6508:6515  stakers */\n      0x02\n        /* \"StakingContract.sol\":6508:6522  stakers[_user] */\n      0x20\n      mstore\n      0x40\n      swap1\n      keccak256\n        /* \"StakingContract.sol\":6508:6535  stakers[_user].amountStaked */\n      sload\n        /* \"StakingContract.sol\":6432:6452  StakedToken[] memory */\n      0x60\n      swap1\n        /* \"StakingContract.sol\":6508:6539  stakers[_user].amountStaked > 0 */\n      iszero\n        /* \"StakingContract.sol\":6504:7229  if (stakers[_user].amountStaked > 0) {... */\n      tag_100\n      jumpi\n      sub(shl(0xa0, 0x01), 0x01)\n        /* \"StakingContract.sol\":6704:6718  stakers[_user] */\n      dup3\n      and\n        /* \"StakingContract.sol\":6649:6683  StakedToken[] memory _stakedTokens */\n      0x00\n        /* \"StakingContract.sol\":6704:6718  stakers[_user] */\n      swap1\n      dup2\n      mstore\n        /* \"StakingContract.sol\":6704:6711  stakers */\n      0x02\n        /* \"StakingContract.sol\":6704:6718  stakers[_user] */\n      0x20\n      mstore\n      0x40\n      dup2\n      keccak256\n        /* \"StakingContract.sol\":6704:6731  stakers[_user].amountStaked */\n      sload\n        /* \"StakingContract.sol\":6686:6732  new StakedToken[](stakers[_user].amountStaked) */\n      0xffffffffffffffff\n      dup2\n      gt\n      iszero\n      tag_102\n      jumpi\n      tag_102\n      tag_103\n      jump\t// in\n    tag_102:\n      mload(0x40)\n      swap1\n      dup1\n      dup3\n      mstore\n      dup1\n      0x20\n      mul\n      0x20\n      add\n      dup3\n      add\n      0x40\n      mstore\n      dup1\n      iszero\n      tag_104\n      jumpi\n      dup2\n      0x20\n      add\n    tag_105:\n      0x40\n      dup1\n      mload\n      dup1\n      dup3\n      add\n      swap1\n      swap2\n      mstore\n      0x00\n      dup1\n      dup3\n      mstore\n      0x20\n      dup3\n      add\n      mstore\n      dup2\n      mstore\n      0x20\n      add\n      swap1\n      0x01\n      swap1\n      sub\n      swap1\n      dup2\n      tag_105\n      jumpi\n      swap1\n      pop\n    tag_104:\n      pop\n        /* \"StakingContract.sol\":6649:6732  StakedToken[] memory _stakedTokens = new StakedToken[](stakers[_user].amountStaked) */\n      swap1\n      pop\n        /* \"StakingContract.sol\":6747:6761  uint256 _index */\n      0x00\n        /* \"StakingContract.sol\":6787:6796  uint256 j */\n      dup1\n        /* \"StakingContract.sol\":6782:7068  for (uint256 j = 0; j < stakers[_user].stakedTokens.length; j++) {... */\n    tag_108:\n      sub(shl(0xa0, 0x01), 0x01)\n        /* \"StakingContract.sol\":6806:6820  stakers[_user] */\n      dup6\n      and\n      0x00\n      swap1\n      dup2\n      mstore\n        /* \"StakingContract.sol\":6806:6813  stakers */\n      0x02\n        /* \"StakingContract.sol\":6806:6820  stakers[_user] */\n      0x20\n      mstore\n      0x40\n      swap1\n      keccak256\n        /* \"StakingContract.sol\":6806:6833  stakers[_user].stakedTokens */\n      0x01\n      add\n        /* \"StakingContract.sol\":6806:6840  stakers[_user].stakedTokens.length */\n      sload\n        /* \"StakingContract.sol\":6802:6840  j < stakers[_user].stakedTokens.length */\n      dup2\n      lt\n        /* \"StakingContract.sol\":6782:7068  for (uint256 j = 0; j < stakers[_user].stakedTokens.length; j++) {... */\n      iszero\n      tag_109\n      jumpi\n      sub(shl(0xa0, 0x01), 0x01)\n        /* \"StakingContract.sol\":6870:6884  stakers[_user] */\n      dup6\n      and\n        /* \"StakingContract.sol\":6920:6921  0 */\n      0x00\n        /* \"StakingContract.sol\":6870:6884  stakers[_user] */\n      swap1\n      dup2\n      mstore\n        /* \"StakingContract.sol\":6870:6877  stakers */\n      0x02\n        /* \"StakingContract.sol\":6870:6884  stakers[_user] */\n      0x20\n      mstore\n      0x40\n      dup2\n      keccak256\n        /* \"StakingContract.sol\":6870:6897  stakers[_user].stakedTokens */\n      0x01\n      add\n        /* \"StakingContract.sol\":6870:6900  stakers[_user].stakedTokens[j] */\n      dup1\n      sload\n        /* \"StakingContract.sol\":6898:6899  j */\n      dup4\n      swap1\n        /* \"StakingContract.sol\":6870:6900  stakers[_user].stakedTokens[j] */\n      dup2\n      lt\n      tag_112\n      jumpi\n      tag_112\n      tag_72\n      jump\t// in\n    tag_112:\n      0x00\n      swap2\n      dup3\n      mstore\n      0x20\n      swap1\n      swap2\n      keccak256\n      0x02\n      swap1\n      swap2\n      mul\n      add\n        /* \"StakingContract.sol\":6870:6907  stakers[_user].stakedTokens[j].staker */\n      sload\n      sub(shl(0xa0, 0x01), 0x01)\n      and\n        /* \"StakingContract.sol\":6870:6923  stakers[_user].stakedTokens[j].staker != (address(0)) */\n      eq\n        /* \"StakingContract.sol\":6866:7053  if (stakers[_user].stakedTokens[j].staker != (address(0))) {... */\n      tag_114\n      jumpi\n      sub(shl(0xa0, 0x01), 0x01)\n        /* \"StakingContract.sol\":6972:6986  stakers[_user] */\n      dup6\n      and\n      0x00\n      swap1\n      dup2\n      mstore\n        /* \"StakingContract.sol\":6972:6979  stakers */\n      0x02\n        /* \"StakingContract.sol\":6972:6986  stakers[_user] */\n      0x20\n      mstore\n      0x40\n      swap1\n      keccak256\n        /* \"StakingContract.sol\":6972:6999  stakers[_user].stakedTokens */\n      0x01\n      add\n        /* \"StakingContract.sol\":6972:7002  stakers[_user].stakedTokens[j] */\n      dup1\n      sload\n        /* \"StakingContract.sol\":7000:7001  j */\n      dup3\n      swap1\n        /* \"StakingContract.sol\":6972:7002  stakers[_user].stakedTokens[j] */\n      dup2\n      lt\n      tag_116\n      jumpi\n      tag_116\n      tag_72\n      jump\t// in\n    tag_116:\n      0x00\n      swap2\n      dup3\n      mstore\n      0x20\n      swap2\n      dup3\n      swap1\n      keccak256\n        /* \"StakingContract.sol\":6948:7002  _stakedTokens[_index] = stakers[_user].stakedTokens[j] */\n      0x40\n      dup1\n      mload\n      dup1\n      dup3\n      add\n      swap1\n      swap2\n      mstore\n        /* \"StakingContract.sol\":6972:7002  stakers[_user].stakedTokens[j] */\n      0x02\n      swap1\n      swap3\n      mul\n      add\n        /* \"StakingContract.sol\":6948:7002  _stakedTokens[_index] = stakers[_user].stakedTokens[j] */\n      dup1\n      sload\n      sub(shl(0xa0, 0x01), 0x01)\n      and\n      dup3\n      mstore\n      0x01\n      add\n      sload\n      swap2\n      dup2\n      add\n      swap2\n      swap1\n      swap2\n      mstore\n        /* \"StakingContract.sol\":6948:6969  _stakedTokens[_index] */\n      dup4\n      mload\n        /* \"StakingContract.sol\":6948:6961  _stakedTokens */\n      dup5\n      swap1\n        /* \"StakingContract.sol\":6962:6968  _index */\n      dup5\n      swap1\n        /* \"StakingContract.sol\":6948:6969  _stakedTokens[_index] */\n      dup2\n      lt\n      tag_119\n      jumpi\n      tag_119\n      tag_72\n      jump\t// in\n    tag_119:\n      0x20\n      mul\n      0x20\n      add\n      add\n        /* \"StakingContract.sol\":6948:7002  _stakedTokens[_index] = stakers[_user].stakedTokens[j] */\n      dup2\n      swap1\n      mstore\n      pop\n        /* \"StakingContract.sol\":7025:7033  _index++ */\n      dup2\n      dup1\n      tag_120\n      swap1\n      tag_80\n      jump\t// in\n    tag_120:\n      swap3\n      pop\n      pop\n        /* \"StakingContract.sol\":6866:7053  if (stakers[_user].stakedTokens[j].staker != (address(0))) {... */\n    tag_114:\n        /* \"StakingContract.sol\":6842:6845  j++ */\n      dup1\n      tag_121\n      dup2\n      tag_80\n      jump\t// in\n    tag_121:\n      swap2\n      pop\n      pop\n        /* \"StakingContract.sol\":6782:7068  for (uint256 j = 0; j < stakers[_user].stakedTokens.length; j++) {... */\n      jump(tag_108)\n    tag_109:\n      pop\n        /* \"StakingContract.sol\":7091:7104  _stakedTokens */\n      swap1\n      swap4\n        /* \"StakingContract.sol\":6371:7236  function getStakedTokens(address _user) public view returns (StakedToken[] memory) {... */\n      swap3\n      pop\n      pop\n      pop\n      jump\t// out\n        /* \"StakingContract.sol\":6504:7229  if (stakers[_user].amountStaked > 0) {... */\n    tag_100:\n        /* \"StakingContract.sol\":7197:7217  new StakedToken[](0) */\n      0x40\n      dup1\n      mload\n        /* \"StakingContract.sol\":7215:7216  0 */\n      0x00\n        /* \"StakingContract.sol\":7197:7217  new StakedToken[](0) */\n      dup1\n      dup3\n      mstore\n      0x20\n      dup3\n      add\n      swap1\n      swap3\n      mstore\n      swap1\n      jump(tag_125)\n    tag_126:\n      0x40\n      dup1\n      mload\n      dup1\n      dup3\n      add\n      swap1\n      swap2\n      mstore\n      0x00\n      dup1\n      dup3\n      mstore\n      0x20\n      dup3\n      add\n      mstore\n      dup2\n      mstore\n      0x20\n      add\n      swap1\n      0x01\n      swap1\n      sub\n      swap1\n      dup2\n      tag_126\n      jumpi\n      swap1\n      pop\n    tag_125:\n      pop\n        /* \"StakingContract.sol\":7190:7217  return new StakedToken[](0) */\n      swap3\n        /* \"StakingContract.sol\":6371:7236  function getStakedTokens(address _user) public view returns (StakedToken[] memory) {... */\n      swap2\n      pop\n      pop\n      jump\t// out\n        /* \"StakingContract.sol\":2032:3286  function stake(uint256 _tokenId) external nonReentrant {... */\n    tag_42:\n        /* \"@openzeppelin/contracts/security/ReentrancyGuard.sol\":1744:1745   */\n      0x02\n        /* \"@openzeppelin/contracts/security/ReentrancyGuard.sol\":2325:2332   */\n      sload(0x00)\n        /* \"@openzeppelin/contracts/security/ReentrancyGuard.sol\":2325:2344   */\n      sub\n        /* \"@openzeppelin/contracts/security/ReentrancyGuard.sol\":2317:2380   */\n      tag_129\n      jumpi\n      mload(0x40)\n      shl(0xe5, 0x461bcd)\n      dup2\n      mstore\n        /* \"#utility.yul\":2887:2889   */\n      0x20\n        /* \"@openzeppelin/contracts/security/ReentrancyGuard.sol\":2317:2380   */\n      0x04\n      dup3\n      add\n        /* \"#utility.yul\":2869:2890   */\n      mstore\n        /* \"#utility.yul\":2926:2928   */\n      0x1f\n        /* \"#utility.yul\":2906:2924   */\n      0x24\n      dup3\n      add\n        /* \"#utility.yul\":2899:2929   */\n      mstore\n        /* \"#utility.yul\":2965:2998   */\n      0x5265656e7472616e637947756172643a207265656e7472616e742063616c6c00\n        /* \"#utility.yul\":2945:2963   */\n      0x44\n      dup3\n      add\n        /* \"#utility.yul\":2938:2999   */\n      mstore\n        /* \"#utility.yul\":3016:3034   */\n      0x64\n      add\n        /* \"@openzeppelin/contracts/security/ReentrancyGuard.sol\":2317:2380   */\n      tag_54\n        /* \"#utility.yul\":2685:3040   */\n      jump\n        /* \"@openzeppelin/contracts/security/ReentrancyGuard.sol\":2317:2380   */\n    tag_129:\n        /* \"@openzeppelin/contracts/security/ReentrancyGuard.sol\":1744:1745   */\n      0x02\n        /* \"@openzeppelin/contracts/security/ReentrancyGuard.sol\":2455:2462   */\n      0x00\n        /* \"@openzeppelin/contracts/security/ReentrancyGuard.sol\":2455:2473   */\n      dup2\n      dup2\n      sstore\n        /* \"StakingContract.sol\":2201:2211  msg.sender */\n      caller\n        /* \"StakingContract.sol\":2193:2212  stakers[msg.sender] */\n      dup2\n      mstore\n      0x20\n      swap2\n      swap1\n      swap2\n      mstore\n      0x40\n      swap1\n      keccak256\n        /* \"StakingContract.sol\":2193:2225  stakers[msg.sender].amountStaked */\n      sload\n        /* \"StakingContract.sol\":2193:2229  stakers[msg.sender].amountStaked > 0 */\n      iszero\n        /* \"StakingContract.sol\":2189:2366  if (stakers[msg.sender].amountStaked > 0) {... */\n      tag_132\n      jumpi\n        /* \"StakingContract.sol\":2246:2261  uint256 rewards */\n      0x00\n        /* \"StakingContract.sol\":2264:2292  calculateRewards(msg.sender) */\n      tag_133\n        /* \"StakingContract.sol\":2281:2291  msg.sender */\n      caller\n        /* \"StakingContract.sol\":2264:2280  calculateRewards */\n      tag_64\n        /* \"StakingContract.sol\":2264:2292  calculateRewards(msg.sender) */\n      jump\t// in\n    tag_133:\n        /* \"StakingContract.sol\":2315:2325  msg.sender */\n      caller\n        /* \"StakingContract.sol\":2307:2326  stakers[msg.sender] */\n      0x00\n      swap1\n      dup2\n      mstore\n        /* \"StakingContract.sol\":2307:2314  stakers */\n      0x02\n        /* \"StakingContract.sol\":2307:2326  stakers[msg.sender] */\n      0x20\n      mstore\n      0x40\n      dup2\n      keccak256\n        /* \"StakingContract.sol\":2307:2343  stakers[msg.sender].unclaimedRewards */\n      0x03\n      add\n        /* \"StakingContract.sol\":2307:2354  stakers[msg.sender].unclaimedRewards += rewards */\n      dup1\n      sload\n        /* \"StakingContract.sol\":2246:2292  uint256 rewards = calculateRewards(msg.sender) */\n      swap3\n      swap4\n      pop\n      dup4\n      swap3\n        /* \"StakingContract.sol\":2307:2343  stakers[msg.sender].unclaimedRewards */\n      swap1\n      swap2\n        /* \"StakingContract.sol\":2307:2326  stakers[msg.sender] */\n      swap1\n        /* \"StakingContract.sol\":2307:2354  stakers[msg.sender].unclaimedRewards += rewards */\n      tag_134\n      swap1\n        /* \"StakingContract.sol\":2246:2292  uint256 rewards = calculateRewards(msg.sender) */\n      dup5\n      swap1\n        /* \"StakingContract.sol\":2307:2354  stakers[msg.sender].unclaimedRewards += rewards */\n      tag_66\n      jump\t// in\n    tag_134:\n      swap1\n      swap2\n      sstore\n      pop\n      pop\n      pop\n        /* \"StakingContract.sol\":2189:2366  if (stakers[msg.sender].amountStaked > 0) {... */\n    tag_132:\n        /* \"StakingContract.sol\":2463:2494  nftCollection.ownerOf(_tokenId) */\n      mload(0x40)\n      shl(0xe1, 0x31a9108f)\n      dup2\n      mstore\n      0x04\n      dup2\n      add\n        /* \"#utility.yul\":2649:2674   */\n      dup3\n      swap1\n      mstore\n        /* \"StakingContract.sol\":2498:2508  msg.sender */\n      caller\n      swap1\n      sub(shl(0xa0, 0x01), 0x01)\n        /* \"StakingContract.sol\":2463:2476  nftCollection */\n      immutable(\"0x8e8fab5f003314da8d1873ea7720e8d9f47650136d916064d1edb8a11d682624\")\n        /* \"StakingContract.sol\":2463:2484  nftCollection.ownerOf */\n      and\n      swap1\n      0x6352211e\n      swap1\n        /* \"#utility.yul\":2622:2640   */\n      0x24\n      add\n        /* \"StakingContract.sol\":2463:2494  nftCollection.ownerOf(_tokenId) */\n      0x20\n      mload(0x40)\n      dup1\n      dup4\n      sub\n      dup2\n      dup7\n      gas\n      staticcall\n      iszero\n      dup1\n      iszero\n      tag_137\n      jumpi\n      returndatasize\n      0x00\n      dup1\n      returndatacopy\n      revert(0x00, returndatasize)\n    tag_137:\n      pop\n      pop\n      pop\n      pop\n      mload(0x40)\n      returndatasize\n      not(0x1f)\n      0x1f\n      dup3\n      add\n      and\n      dup3\n      add\n      dup1\n      0x40\n      mstore\n      pop\n      dup2\n      add\n      swap1\n      tag_138\n      swap2\n      swap1\n      tag_139\n      jump\t// in\n    tag_138:\n      sub(shl(0xa0, 0x01), 0x01)\n        /* \"StakingContract.sol\":2463:2508  nftCollection.ownerOf(_tokenId) == msg.sender */\n      and\n      eq\n        /* \"StakingContract.sol\":2441:2561  require(... */\n      tag_140\n      jumpi\n      mload(0x40)\n      shl(0xe5, 0x461bcd)\n      dup2\n      mstore\n        /* \"#utility.yul\":3601:3603   */\n      0x20\n        /* \"StakingContract.sol\":2441:2561  require(... */\n      0x04\n      dup3\n      add\n        /* \"#utility.yul\":3583:3604   */\n      mstore\n        /* \"#utility.yul\":3640:3642   */\n      0x19\n        /* \"#utility.yul\":3620:3638   */\n      0x24\n      dup3\n      add\n        /* \"#utility.yul\":3613:3643   */\n      mstore\n        /* \"#utility.yul\":3679:3706   */\n      0x596f7520646f6e2774206f776e207468697320746f6b656e2100000000000000\n        /* \"#utility.yul\":3659:3677   */\n      0x44\n      dup3\n      add\n        /* \"#utility.yul\":3652:3707   */\n      mstore\n        /* \"#utility.yul\":3724:3742   */\n      0x64\n      add\n        /* \"StakingContract.sol\":2441:2561  require(... */\n      tag_54\n        /* \"#utility.yul\":3399:3748   */\n      jump\n        /* \"StakingContract.sol\":2441:2561  require(... */\n    tag_140:\n        /* \"StakingContract.sol\":2643:2706  nftCollection.transferFrom(msg.sender, address(this), _tokenId) */\n      mload(0x40)\n      shl(0xe0, 0x23b872dd)\n      dup2\n      mstore\n        /* \"StakingContract.sol\":2670:2680  msg.sender */\n      caller\n        /* \"StakingContract.sol\":2643:2706  nftCollection.transferFrom(msg.sender, address(this), _tokenId) */\n      0x04\n      dup3\n      add\n        /* \"#utility.yul\":4694:4728   */\n      mstore\n        /* \"StakingContract.sol\":2690:2694  this */\n      address\n        /* \"#utility.yul\":4744:4762   */\n      0x24\n      dup3\n      add\n        /* \"#utility.yul\":4737:4780   */\n      mstore\n        /* \"#utility.yul\":4796:4814   */\n      0x44\n      dup2\n      add\n        /* \"#utility.yul\":4789:4823   */\n      dup3\n      swap1\n      mstore\n        /* \"StakingContract.sol\":2643:2656  nftCollection */\n      immutable(\"0x8e8fab5f003314da8d1873ea7720e8d9f47650136d916064d1edb8a11d682624\")\n      sub(shl(0xa0, 0x01), 0x01)\n        /* \"StakingContract.sol\":2643:2669  nftCollection.transferFrom */\n      and\n      swap1\n      0x23b872dd\n      swap1\n        /* \"#utility.yul\":4606:4624   */\n      0x64\n      add\n        /* \"StakingContract.sol\":2643:2706  nftCollection.transferFrom(msg.sender, address(this), _tokenId) */\n      0x00\n      mload(0x40)\n      dup1\n      dup4\n      sub\n      dup2\n      0x00\n      dup8\n      dup1\n      extcodesize\n      iszero\n      dup1\n      iszero\n      tag_143\n      jumpi\n      0x00\n      dup1\n      revert\n    tag_143:\n      pop\n      gas\n      call\n      iszero\n      dup1\n      iszero\n      tag_145\n      jumpi\n      returndatasize\n      0x00\n      dup1\n      returndatacopy\n      revert(0x00, returndatasize)\n    tag_145:\n      pop\n      pop\n        /* \"StakingContract.sol\":2783:2816  StakedToken(msg.sender, _tokenId) */\n      0x40\n      dup1\n      mload\n      dup1\n      dup3\n      add\n      dup3\n      mstore\n        /* \"StakingContract.sol\":2795:2805  msg.sender */\n      caller\n        /* \"StakingContract.sol\":2783:2816  StakedToken(msg.sender, _tokenId) */\n      dup1\n      dup3\n      mstore\n      0x20\n      dup1\n      dup4\n      add\n      dup8\n      dup2\n      mstore\n      0x00\n        /* \"StakingContract.sol\":2881:2900  stakers[msg.sender] */\n      dup4\n      dup2\n      mstore\n        /* \"StakingContract.sol\":2881:2888  stakers */\n      0x02\n        /* \"StakingContract.sol\":2881:2900  stakers[msg.sender] */\n      dup1\n      dup5\n      mstore\n      swap6\n      dup2\n      keccak256\n        /* \"StakingContract.sol\":2881:2913  stakers[msg.sender].stakedTokens */\n      0x01\n      dup1\n      dup3\n      add\n        /* \"StakingContract.sol\":2881:2931  stakers[msg.sender].stakedTokens.push(stakedToken) */\n      dup1\n      sload\n      dup1\n      dup4\n      add\n      dup3\n      sstore\n      swap1\n      dup5\n      mstore\n      swap5\n      dup4\n      keccak256\n      dup8\n      mload\n      swap6\n      swap1\n      swap9\n      mul\n      swap1\n      swap8\n      add\n      dup1\n      sload\n      not(sub(shl(0xa0, 0x01), 0x01))\n      and\n      sub(shl(0xa0, 0x01), 0x01)\n      swap1\n      swap6\n      and\n      swap5\n      swap1\n      swap5\n      or\n      dup5\n      sstore\n      swap2\n      mload\n      swap3\n      swap1\n      swap6\n      add\n      swap2\n      swap1\n      swap2\n      sstore\n        /* \"StakingContract.sol\":3000:3019  stakers[msg.sender] */\n      swap1\n      dup4\n      mstore\n        /* \"StakingContract.sol\":3000:3034  stakers[msg.sender].amountStaked++ */\n      dup1\n      sload\n        /* \"StakingContract.sol\":2783:2816  StakedToken(msg.sender, _tokenId) */\n      swap2\n      swap5\n      pop\n        /* \"StakingContract.sol\":3000:3034  stakers[msg.sender].amountStaked++ */\n      swap1\n      swap3\n      pop\n        /* \"StakingContract.sol\":2881:2900  stakers[msg.sender] */\n      swap1\n        /* \"StakingContract.sol\":3000:3034  stakers[msg.sender].amountStaked++ */\n      tag_147\n      dup4\n      tag_80\n      jump\t// in\n    tag_147:\n      swap1\n      swap2\n      sstore\n      pop\n      pop\n      pop\n        /* \"StakingContract.sol\":3117:3140  stakerAddress[_tokenId] */\n      0x00\n      swap1\n      dup2\n      mstore\n        /* \"StakingContract.sol\":3117:3130  stakerAddress */\n      0x03\n        /* \"StakingContract.sol\":3117:3140  stakerAddress[_tokenId] */\n      0x20\n      swap1\n      dup2\n      mstore\n      0x40\n      dup1\n      dup4\n      keccak256\n        /* \"StakingContract.sol\":3117:3153  stakerAddress[_tokenId] = msg.sender */\n      dup1\n      sload\n      not(sub(shl(0xa0, 0x01), 0x01))\n      and\n        /* \"StakingContract.sol\":3143:3153  msg.sender */\n      caller\n        /* \"StakingContract.sol\":3117:3153  stakerAddress[_tokenId] = msg.sender */\n      swap1\n      dup2\n      or\n      swap1\n      swap2\n      sstore\n        /* \"StakingContract.sol\":3224:3243  stakers[msg.sender] */\n      dup4\n      mstore\n        /* \"StakingContract.sol\":3224:3231  stakers */\n      0x02\n        /* \"StakingContract.sol\":3224:3243  stakers[msg.sender] */\n      swap2\n      dup3\n      swap1\n      mstore\n      dup3\n      keccak256\n        /* \"StakingContract.sol\":3263:3278  block.timestamp */\n      timestamp\n        /* \"StakingContract.sol\":3224:3260  stakers[msg.sender].timeOfLastUpdate */\n      swap2\n      add\n        /* \"StakingContract.sol\":3224:3278  stakers[msg.sender].timeOfLastUpdate = block.timestamp */\n      sstore\n        /* \"StakingContract.sol\":3117:3153  stakerAddress[_tokenId] = msg.sender */\n      0x01\n        /* \"@openzeppelin/contracts/security/ReentrancyGuard.sol\":2628:2650   */\n      swap1\n      sstore\n        /* \"StakingContract.sol\":2032:3286  function stake(uint256 _tokenId) external nonReentrant {... */\n      jump\t// out\n        /* \"StakingContract.sol\":7245:7454  function availableRewards(address _staker) public view returns (uint256) {... */\n    tag_49:\n      sub(shl(0xa0, 0x01), 0x01)\n        /* \"StakingContract.sol\":7388:7404  stakers[_staker] */\n      dup2\n      and\n        /* \"StakingContract.sol\":7309:7316  uint256 */\n      0x00\n        /* \"StakingContract.sol\":7388:7404  stakers[_staker] */\n      swap1\n      dup2\n      mstore\n        /* \"StakingContract.sol\":7388:7395  stakers */\n      0x02\n        /* \"StakingContract.sol\":7388:7404  stakers[_staker] */\n      0x20\n      mstore\n      0x40\n      dup2\n      keccak256\n        /* \"StakingContract.sol\":7388:7421  stakers[_staker].unclaimedRewards */\n      0x03\n      add\n      sload\n        /* \"StakingContract.sol\":7309:7316  uint256 */\n      dup2\n      swap1\n        /* \"StakingContract.sol\":7347:7372  calculateRewards(_staker) */\n      tag_149\n        /* \"StakingContract.sol\":7396:7403  _staker */\n      dup5\n        /* \"StakingContract.sol\":7347:7363  calculateRewards */\n      tag_64\n        /* \"StakingContract.sol\":7347:7372  calculateRewards(_staker) */\n      jump\t// in\n    tag_149:\n        /* \"StakingContract.sol\":7347:7421  calculateRewards(_staker) +... */\n      tag_150\n      swap2\n      swap1\n      tag_66\n      jump\t// in\n    tag_150:\n        /* \"StakingContract.sol\":7329:7421  uint256 rewards = calculateRewards(_staker) +... */\n      swap4\n        /* \"StakingContract.sol\":7245:7454  function availableRewards(address _staker) public view returns (uint256) {... */\n      swap3\n      pop\n      pop\n      pop\n      jump\t// out\n        /* \"StakingContract.sol\":6060:6360  function calculateRewards(address _staker)... */\n    tag_64:\n        /* \"StakingContract.sol\":6329:6343  rewardsPerHour */\n      sload(0x01)\n      sub(shl(0xa0, 0x01), 0x01)\n        /* \"StakingContract.sol\":6285:6301  stakers[_staker] */\n      dup3\n      and\n        /* \"StakingContract.sol\":6153:6169  uint256 _rewards */\n      0x00\n        /* \"StakingContract.sol\":6285:6301  stakers[_staker] */\n      swap1\n      dup2\n      mstore\n        /* \"StakingContract.sol\":6285:6292  stakers */\n      0x02\n        /* \"StakingContract.sol\":6285:6301  stakers[_staker] */\n      0x20\n      dup2\n      swap1\n      mstore\n      0x40\n      dup3\n      keccak256\n        /* \"StakingContract.sol\":6285:6314  stakers[_staker].amountStaked */\n      dup1\n      sload\n        /* \"StakingContract.sol\":6231:6264  stakers[_staker].timeOfLastUpdate */\n      swap2\n      add\n      sload\n        /* \"StakingContract.sol\":6153:6169  uint256 _rewards */\n      swap2\n      swap3\n        /* \"StakingContract.sol\":6347:6351  3600 */\n      0x0e10\n      swap3\n        /* \"StakingContract.sol\":6329:6343  rewardsPerHour */\n      swap1\n      swap2\n        /* \"StakingContract.sol\":6285:6314  stakers[_staker].amountStaked */\n      swap1\n        /* \"StakingContract.sol\":6213:6264  block.timestamp - stakers[_staker].timeOfLastUpdate */\n      tag_152\n      swap1\n        /* \"StakingContract.sol\":6213:6228  block.timestamp */\n      timestamp\n        /* \"StakingContract.sol\":6213:6264  block.timestamp - stakers[_staker].timeOfLastUpdate */\n      tag_153\n      jump\t// in\n    tag_152:\n        /* \"StakingContract.sol\":6212:6314  (block.timestamp - stakers[_staker].timeOfLastUpdate) *... */\n      tag_154\n      swap2\n      swap1\n      tag_155\n      jump\t// in\n    tag_154:\n        /* \"StakingContract.sol\":6196:6343  (... */\n      tag_156\n      swap2\n      swap1\n      tag_155\n      jump\t// in\n    tag_156:\n        /* \"StakingContract.sol\":6195:6351  ((... */\n      tag_157\n      swap2\n      swap1\n      tag_158\n      jump\t// in\n    tag_157:\n        /* \"StakingContract.sol\":6187:6352  return (((... */\n      swap3\n        /* \"StakingContract.sol\":6060:6360  function calculateRewards(address _staker)... */\n      swap2\n      pop\n      pop\n      jump\t// out\n        /* \"@openzeppelin/contracts/token/ERC20/utils/SafeERC20.sol\":763:968   */\n    tag_98:\n        /* \"@openzeppelin/contracts/token/ERC20/utils/SafeERC20.sol\":902:960   */\n      0x40\n      dup1\n      mload\n      sub(shl(0xa0, 0x01), 0x01)\n        /* \"#utility.yul\":6296:6351   */\n      dup5\n      and\n        /* \"@openzeppelin/contracts/token/ERC20/utils/SafeERC20.sol\":902:960   */\n      0x24\n      dup3\n      add\n        /* \"#utility.yul\":6278:6352   */\n      mstore\n        /* \"#utility.yul\":6368:6386   */\n      0x44\n      dup1\n      dup3\n      add\n        /* \"#utility.yul\":6361:6395   */\n      dup5\n      swap1\n      mstore\n        /* \"@openzeppelin/contracts/token/ERC20/utils/SafeERC20.sol\":902:960   */\n      dup3\n      mload\n      dup1\n      dup4\n      sub\n      swap1\n      swap2\n      add\n      dup2\n      mstore\n        /* \"#utility.yul\":6251:6269   */\n      0x64\n      swap1\n      swap2\n      add\n        /* \"@openzeppelin/contracts/token/ERC20/utils/SafeERC20.sol\":902:960   */\n      swap1\n      swap2\n      mstore\n      0x20\n      dup2\n      add\n      dup1\n      mload\n      0xffffffffffffffffffffffffffffffffffffffffffffffffffffffff\n      and\n      shl(0xe0, 0xa9059cbb)\n      or\n      swap1\n      mstore\n        /* \"@openzeppelin/contracts/token/ERC20/utils/SafeERC20.sol\":875:961   */\n      tag_160\n      swap1\n        /* \"@openzeppelin/contracts/token/ERC20/utils/SafeERC20.sol\":895:900   */\n      dup5\n      swap1\n        /* \"@openzeppelin/contracts/token/ERC20/utils/SafeERC20.sol\":875:894   */\n      tag_163\n        /* \"@openzeppelin/contracts/token/ERC20/utils/SafeERC20.sol\":875:961   */\n      jump\t// in\n    tag_160:\n        /* \"@openzeppelin/contracts/token/ERC20/utils/SafeERC20.sol\":763:968   */\n      pop\n      pop\n      pop\n      jump\t// out\n        /* \"@openzeppelin/contracts/token/ERC20/utils/SafeERC20.sol\":3747:4453   */\n    tag_163:\n        /* \"@openzeppelin/contracts/token/ERC20/utils/SafeERC20.sol\":4166:4189   */\n      0x00\n        /* \"@openzeppelin/contracts/token/ERC20/utils/SafeERC20.sol\":4192:4261   */\n      tag_165\n        /* \"@openzeppelin/contracts/token/ERC20/utils/SafeERC20.sol\":4220:4224   */\n      dup3\n        /* \"@openzeppelin/contracts/token/ERC20/utils/SafeERC20.sol\":4192:4261   */\n      mload(0x40)\n      dup1\n      0x40\n      add\n      0x40\n      mstore\n      dup1\n      0x20\n      dup2\n      mstore\n      0x20\n      add\n      0x5361666545524332303a206c6f772d6c6576656c2063616c6c206661696c6564\n      dup2\n      mstore\n      pop\n        /* \"@openzeppelin/contracts/token/ERC20/utils/SafeERC20.sol\":4200:4205   */\n      dup6\n      sub(shl(0xa0, 0x01), 0x01)\n        /* \"@openzeppelin/contracts/token/ERC20/utils/SafeERC20.sol\":4192:4219   */\n      and\n      tag_166\n      swap1\n        /* \"@openzeppelin/contracts/token/ERC20/utils/SafeERC20.sol\":4192:4261   */\n      swap3\n      swap2\n      swap1\n      0xffffffff\n      and\n      jump\t// in\n    tag_165:\n        /* \"@openzeppelin/contracts/token/ERC20/utils/SafeERC20.sol\":4275:4292   */\n      dup1\n      mload\n        /* \"@openzeppelin/contracts/token/ERC20/utils/SafeERC20.sol\":4166:4261   */\n      swap1\n      swap2\n      pop\n        /* \"@openzeppelin/contracts/token/ERC20/utils/SafeERC20.sol\":4275:4296   */\n      iszero\n        /* \"@openzeppelin/contracts/token/ERC20/utils/SafeERC20.sol\":4271:4447   */\n      tag_160\n      jumpi\n        /* \"@openzeppelin/contracts/token/ERC20/utils/SafeERC20.sol\":4370:4380   */\n      dup1\n        /* \"@openzeppelin/contracts/token/ERC20/utils/SafeERC20.sol\":4359:4389   */\n      dup1\n      0x20\n      add\n      swap1\n      mload\n      dup2\n      add\n      swap1\n      tag_168\n      swap2\n      swap1\n      tag_169\n      jump\t// in\n    tag_168:\n        /* \"@openzeppelin/contracts/token/ERC20/utils/SafeERC20.sol\":4351:4436   */\n      tag_160\n      jumpi\n      mload(0x40)\n      shl(0xe5, 0x461bcd)\n      dup2\n      mstore\n        /* \"#utility.yul\":6890:6892   */\n      0x20\n        /* \"@openzeppelin/contracts/token/ERC20/utils/SafeERC20.sol\":4351:4436   */\n      0x04\n      dup3\n      add\n        /* \"#utility.yul\":6872:6893   */\n      mstore\n        /* \"#utility.yul\":6929:6931   */\n      0x2a\n        /* \"#utility.yul\":6909:6927   */\n      0x24\n      dup3\n      add\n        /* \"#utility.yul\":6902:6932   */\n      mstore\n        /* \"#utility.yul\":6968:7002   */\n      0x5361666545524332303a204552433230206f7065726174696f6e20646964206e\n        /* \"#utility.yul\":6948:6966   */\n      0x44\n      dup3\n      add\n        /* \"#utility.yul\":6941:7003   */\n      mstore\n        /* \"#utility.yul\":7039:7051   */\n      0x6f74207375636365656400000000000000000000000000000000000000000000\n        /* \"#utility.yul\":7019:7037   */\n      0x64\n      dup3\n      add\n        /* \"#utility.yul\":7012:7052   */\n      mstore\n        /* \"#utility.yul\":7069:7088   */\n      0x84\n      add\n        /* \"@openzeppelin/contracts/token/ERC20/utils/SafeERC20.sol\":4351:4436   */\n      tag_54\n        /* \"#utility.yul\":6688:7094   */\n      jump\n        /* \"@openzeppelin/contracts/utils/Address.sol\":3861:4084   */\n    tag_166:\n        /* \"@openzeppelin/contracts/utils/Address.sol\":3994:4006   */\n      0x60\n        /* \"@openzeppelin/contracts/utils/Address.sol\":4025:4077   */\n      tag_174\n        /* \"@openzeppelin/contracts/utils/Address.sol\":4047:4053   */\n      dup5\n        /* \"@openzeppelin/contracts/utils/Address.sol\":4055:4059   */\n      dup5\n        /* \"@openzeppelin/contracts/utils/Address.sol\":4061:4062   */\n      0x00\n        /* \"@openzeppelin/contracts/utils/Address.sol\":4064:4076   */\n      dup6\n        /* \"@openzeppelin/contracts/utils/Address.sol\":4025:4046   */\n      tag_175\n        /* \"@openzeppelin/contracts/utils/Address.sol\":4025:4077   */\n      jump\t// in\n    tag_174:\n        /* \"@openzeppelin/contracts/utils/Address.sol\":4018:4077   */\n      swap5\n        /* \"@openzeppelin/contracts/utils/Address.sol\":3861:4084   */\n      swap4\n      pop\n      pop\n      pop\n      pop\n      jump\t// out\n        /* \"@openzeppelin/contracts/utils/Address.sol\":4948:5447   */\n    tag_175:\n        /* \"@openzeppelin/contracts/utils/Address.sol\":5113:5125   */\n      0x60\n        /* \"@openzeppelin/contracts/utils/Address.sol\":5170:5175   */\n      dup3\n        /* \"@openzeppelin/contracts/utils/Address.sol\":5145:5166   */\n      selfbalance\n        /* \"@openzeppelin/contracts/utils/Address.sol\":5145:5175   */\n      lt\n      iszero\n        /* \"@openzeppelin/contracts/utils/Address.sol\":5137:5218   */\n      tag_177\n      jumpi\n      mload(0x40)\n      shl(0xe5, 0x461bcd)\n      dup2\n      mstore\n        /* \"#utility.yul\":7301:7303   */\n      0x20\n        /* \"@openzeppelin/contracts/utils/Address.sol\":5137:5218   */\n      0x04\n      dup3\n      add\n        /* \"#utility.yul\":7283:7304   */\n      mstore\n        /* \"#utility.yul\":7340:7342   */\n      0x26\n        /* \"#utility.yul\":7320:7338   */\n      0x24\n      dup3\n      add\n        /* \"#utility.yul\":7313:7343   */\n      mstore\n        /* \"#utility.yul\":7379:7413   */\n      0x416464726573733a20696e73756666696369656e742062616c616e636520666f\n        /* \"#utility.yul\":7359:7377   */\n      0x44\n      dup3\n      add\n        /* \"#utility.yul\":7352:7414   */\n      mstore\n        /* \"#utility.yul\":7450:7458   */\n      0x722063616c6c0000000000000000000000000000000000000000000000000000\n        /* \"#utility.yul\":7430:7448   */\n      0x64\n      dup3\n      add\n        /* \"#utility.yul\":7423:7459   */\n      mstore\n        /* \"#utility.yul\":7476:7495   */\n      0x84\n      add\n        /* \"@openzeppelin/contracts/utils/Address.sol\":5137:5218   */\n      tag_54\n        /* \"#utility.yul\":7099:7501   */\n      jump\n        /* \"@openzeppelin/contracts/utils/Address.sol\":5137:5218   */\n    tag_177:\n      sub(shl(0xa0, 0x01), 0x01)\n        /* \"@openzeppelin/contracts/utils/Address.sol\":1465:1484   */\n      dup6\n      and\n      extcodesize\n        /* \"@openzeppelin/contracts/utils/Address.sol\":5228:5288   */\n      tag_182\n      jumpi\n      mload(0x40)\n      shl(0xe5, 0x461bcd)\n      dup2\n      mstore\n        /* \"#utility.yul\":7708:7710   */\n      0x20\n        /* \"@openzeppelin/contracts/utils/Address.sol\":5228:5288   */\n      0x04\n      dup3\n      add\n        /* \"#utility.yul\":7690:7711   */\n      mstore\n        /* \"#utility.yul\":7747:7749   */\n      0x1d\n        /* \"#utility.yul\":7727:7745   */\n      0x24\n      dup3\n      add\n        /* \"#utility.yul\":7720:7750   */\n      mstore\n        /* \"#utility.yul\":7786:7817   */\n      0x416464726573733a2063616c6c20746f206e6f6e2d636f6e7472616374000000\n        /* \"#utility.yul\":7766:7784   */\n      0x44\n      dup3\n      add\n        /* \"#utility.yul\":7759:7818   */\n      mstore\n        /* \"#utility.yul\":7835:7853   */\n      0x64\n      add\n        /* \"@openzeppelin/contracts/utils/Address.sol\":5228:5288   */\n      tag_54\n        /* \"#utility.yul\":7506:7859   */\n      jump\n        /* \"@openzeppelin/contracts/utils/Address.sol\":5228:5288   */\n    tag_182:\n        /* \"@openzeppelin/contracts/utils/Address.sol\":5300:5312   */\n      0x00\n        /* \"@openzeppelin/contracts/utils/Address.sol\":5314:5337   */\n      dup1\n        /* \"@openzeppelin/contracts/utils/Address.sol\":5341:5347   */\n      dup7\n      sub(shl(0xa0, 0x01), 0x01)\n        /* \"@openzeppelin/contracts/utils/Address.sol\":5341:5352   */\n      and\n        /* \"@openzeppelin/contracts/utils/Address.sol\":5360:5365   */\n      dup6\n        /* \"@openzeppelin/contracts/utils/Address.sol\":5367:5371   */\n      dup8\n        /* \"@openzeppelin/contracts/utils/Address.sol\":5341:5372   */\n      mload(0x40)\n      tag_185\n      swap2\n      swap1\n      tag_186\n      jump\t// in\n    tag_185:\n      0x00\n      mload(0x40)\n      dup1\n      dup4\n      sub\n      dup2\n      dup6\n      dup8\n      gas\n      call\n      swap3\n      pop\n      pop\n      pop\n      returndatasize\n      dup1\n      0x00\n      dup2\n      eq\n      tag_189\n      jumpi\n      mload(0x40)\n      swap2\n      pop\n      and(add(returndatasize, 0x3f), not(0x1f))\n      dup3\n      add\n      0x40\n      mstore\n      returndatasize\n      dup3\n      mstore\n      returndatasize\n      0x00\n      0x20\n      dup5\n      add\n      returndatacopy\n      jump(tag_188)\n    tag_189:\n      0x60\n      swap2\n      pop\n    tag_188:\n      pop\n        /* \"@openzeppelin/contracts/utils/Address.sol\":5299:5372   */\n      swap2\n      pop\n      swap2\n      pop\n        /* \"@openzeppelin/contracts/utils/Address.sol\":5389:5440   */\n      tag_190\n        /* \"@openzeppelin/contracts/utils/Address.sol\":5406:5413   */\n      dup3\n        /* \"@openzeppelin/contracts/utils/Address.sol\":5415:5425   */\n      dup3\n        /* \"@openzeppelin/contracts/utils/Address.sol\":5427:5439   */\n      dup7\n        /* \"@openzeppelin/contracts/utils/Address.sol\":5389:5405   */\n      tag_191\n        /* \"@openzeppelin/contracts/utils/Address.sol\":5389:5440   */\n      jump\t// in\n    tag_190:\n        /* \"@openzeppelin/contracts/utils/Address.sol\":5382:5440   */\n      swap8\n        /* \"@openzeppelin/contracts/utils/Address.sol\":4948:5447   */\n      swap7\n      pop\n      pop\n      pop\n      pop\n      pop\n      pop\n      pop\n      jump\t// out\n        /* \"@openzeppelin/contracts/utils/Address.sol\":7561:8303   */\n    tag_191:\n        /* \"@openzeppelin/contracts/utils/Address.sol\":7707:7719   */\n      0x60\n        /* \"@openzeppelin/contracts/utils/Address.sol\":7735:7742   */\n      dup4\n        /* \"@openzeppelin/contracts/utils/Address.sol\":7731:8297   */\n      iszero\n      tag_194\n      jumpi\n      pop\n        /* \"@openzeppelin/contracts/utils/Address.sol\":7765:7775   */\n      dup2\n        /* \"@openzeppelin/contracts/utils/Address.sol\":7758:7775   */\n      jump(tag_150)\n        /* \"@openzeppelin/contracts/utils/Address.sol\":7731:8297   */\n    tag_194:\n        /* \"@openzeppelin/contracts/utils/Address.sol\":7876:7893   */\n      dup3\n      mload\n        /* \"@openzeppelin/contracts/utils/Address.sol\":7876:7897   */\n      iszero\n        /* \"@openzeppelin/contracts/utils/Address.sol\":7872:8287   */\n      tag_196\n      jumpi\n        /* \"@openzeppelin/contracts/utils/Address.sol\":8120:8130   */\n      dup3\n        /* \"@openzeppelin/contracts/utils/Address.sol\":8114:8131   */\n      mload\n        /* \"@openzeppelin/contracts/utils/Address.sol\":8180:8195   */\n      dup1\n        /* \"@openzeppelin/contracts/utils/Address.sol\":8167:8177   */\n      dup5\n        /* \"@openzeppelin/contracts/utils/Address.sol\":8163:8165   */\n      0x20\n        /* \"@openzeppelin/contracts/utils/Address.sol\":8159:8178   */\n      add\n        /* \"@openzeppelin/contracts/utils/Address.sol\":8152:8196   */\n      revert\n        /* \"@openzeppelin/contracts/utils/Address.sol\":7872:8287   */\n    tag_196:\n        /* \"@openzeppelin/contracts/utils/Address.sol\":8259:8271   */\n      dup2\n        /* \"@openzeppelin/contracts/utils/Address.sol\":8252:8272   */\n      mload(0x40)\n      shl(0xe5, 0x461bcd)\n      dup2\n      mstore\n      0x04\n      add\n      tag_54\n      swap2\n      swap1\n      tag_199\n      jump\t// in\n        /* \"#utility.yul\":14:194   */\n    tag_16:\n        /* \"#utility.yul\":73:79   */\n      0x00\n        /* \"#utility.yul\":126:128   */\n      0x20\n        /* \"#utility.yul\":114:123   */\n      dup3\n        /* \"#utility.yul\":105:112   */\n      dup5\n        /* \"#utility.yul\":101:124   */\n      sub\n        /* \"#utility.yul\":97:129   */\n      slt\n        /* \"#utility.yul\":94:146   */\n      iszero\n      tag_205\n      jumpi\n        /* \"#utility.yul\":142:143   */\n      0x00\n        /* \"#utility.yul\":139:140   */\n      dup1\n        /* \"#utility.yul\":132:144   */\n      revert\n        /* \"#utility.yul\":94:146   */\n    tag_205:\n      pop\n        /* \"#utility.yul\":165:188   */\n      calldataload\n      swap2\n        /* \"#utility.yul\":14:194   */\n      swap1\n      pop\n      jump\t// out\n        /* \"#utility.yul\":199:353   */\n    tag_200:\n      sub(shl(0xa0, 0x01), 0x01)\n        /* \"#utility.yul\":278:283   */\n      dup2\n        /* \"#utility.yul\":274:328   */\n      and\n        /* \"#utility.yul\":267:272   */\n      dup2\n        /* \"#utility.yul\":264:329   */\n      eq\n        /* \"#utility.yul\":254:347   */\n      tag_97\n      jumpi\n        /* \"#utility.yul\":343:344   */\n      0x00\n        /* \"#utility.yul\":340:341   */\n      dup1\n        /* \"#utility.yul\":333:345   */\n      revert\n        /* \"#utility.yul\":358:605   */\n    tag_22:\n        /* \"#utility.yul\":417:423   */\n      0x00\n        /* \"#utility.yul\":470:472   */\n      0x20\n        /* \"#utility.yul\":458:467   */\n      dup3\n        /* \"#utility.yul\":449:456   */\n      dup5\n        /* \"#utility.yul\":445:468   */\n      sub\n        /* \"#utility.yul\":441:473   */\n      slt\n        /* \"#utility.yul\":438:490   */\n      iszero\n      tag_209\n      jumpi\n        /* \"#utility.yul\":486:487   */\n      0x00\n        /* \"#utility.yul\":483:484   */\n      dup1\n        /* \"#utility.yul\":476:488   */\n      revert\n        /* \"#utility.yul\":438:490   */\n    tag_209:\n        /* \"#utility.yul\":525:534   */\n      dup2\n        /* \"#utility.yul\":512:535   */\n      calldataload\n        /* \"#utility.yul\":544:575   */\n      tag_150\n        /* \"#utility.yul\":569:574   */\n      dup2\n        /* \"#utility.yul\":544:575   */\n      tag_200\n      jump\t// in\n        /* \"#utility.yul\":610:1451   */\n    tag_25:\n        /* \"#utility.yul\":835:837   */\n      0x20\n        /* \"#utility.yul\":887:908   */\n      dup1\n      dup3\n      mstore\n        /* \"#utility.yul\":957:970   */\n      dup3\n      mload\n        /* \"#utility.yul\":860:878   */\n      dup3\n      dup3\n      add\n        /* \"#utility.yul\":979:1001   */\n      dup2\n      swap1\n      mstore\n        /* \"#utility.yul\":806:810   */\n      0x00\n      swap2\n        /* \"#utility.yul\":835:837   */\n      swap1\n        /* \"#utility.yul\":1020:1022   */\n      0x40\n      swap1\n        /* \"#utility.yul\":1038:1056   */\n      dup2\n      dup6\n      add\n      swap1\n        /* \"#utility.yul\":1079:1094   */\n      dup7\n      dup5\n      add\n        /* \"#utility.yul\":806:810   */\n      dup6\n        /* \"#utility.yul\":1122:1425   */\n    tag_212:\n        /* \"#utility.yul\":1136:1142   */\n      dup3\n        /* \"#utility.yul\":1133:1134   */\n      dup2\n        /* \"#utility.yul\":1130:1143   */\n      lt\n        /* \"#utility.yul\":1122:1425   */\n      iszero\n      tag_214\n      jumpi\n        /* \"#utility.yul\":1195:1208   */\n      dup2\n      mload\n        /* \"#utility.yul\":1237:1246   */\n      dup1\n      mload\n      sub(shl(0xa0, 0x01), 0x01)\n        /* \"#utility.yul\":1233:1291   */\n      and\n        /* \"#utility.yul\":1221:1292   */\n      dup6\n      mstore\n        /* \"#utility.yul\":1332:1343   */\n      dup7\n      add\n        /* \"#utility.yul\":1326:1344   */\n      mload\n        /* \"#utility.yul\":1312:1324   */\n      dup7\n      dup6\n      add\n        /* \"#utility.yul\":1305:1345   */\n      mstore\n        /* \"#utility.yul\":1365:1377   */\n      swap3\n      dup5\n      add\n      swap3\n        /* \"#utility.yul\":1400:1415   */\n      swap1\n      dup6\n      add\n      swap1\n        /* \"#utility.yul\":1158:1159   */\n      0x01\n        /* \"#utility.yul\":1151:1160   */\n      add\n        /* \"#utility.yul\":1122:1425   */\n      jump(tag_212)\n    tag_214:\n      pop\n        /* \"#utility.yul\":1442:1445   */\n      swap2\n      swap8\n        /* \"#utility.yul\":610:1451   */\n      swap7\n      pop\n      pop\n      pop\n      pop\n      pop\n      pop\n      pop\n      jump\t// out\n        /* \"#utility.yul\":3753:3880   */\n    tag_201:\n        /* \"#utility.yul\":3814:3824   */\n      0x4e487b71\n        /* \"#utility.yul\":3809:3812   */\n      0xe0\n        /* \"#utility.yul\":3805:3825   */\n      shl\n        /* \"#utility.yul\":3802:3803   */\n      0x00\n        /* \"#utility.yul\":3795:3826   */\n      mstore\n        /* \"#utility.yul\":3845:3849   */\n      0x11\n        /* \"#utility.yul\":3842:3843   */\n      0x04\n        /* \"#utility.yul\":3835:3850   */\n      mstore\n        /* \"#utility.yul\":3869:3873   */\n      0x24\n        /* \"#utility.yul\":3866:3867   */\n      0x00\n        /* \"#utility.yul\":3859:3874   */\n      revert\n        /* \"#utility.yul\":3885:4013   */\n    tag_66:\n        /* \"#utility.yul\":3925:3928   */\n      0x00\n        /* \"#utility.yul\":3956:3957   */\n      dup3\n        /* \"#utility.yul\":3952:3958   */\n      not\n        /* \"#utility.yul\":3949:3950   */\n      dup3\n        /* \"#utility.yul\":3946:3959   */\n      gt\n        /* \"#utility.yul\":3943:3982   */\n      iszero\n      tag_226\n      jumpi\n        /* \"#utility.yul\":3962:3980   */\n      tag_226\n      tag_201\n      jump\t// in\n    tag_226:\n      pop\n        /* \"#utility.yul\":3998:4007   */\n      add\n      swap1\n        /* \"#utility.yul\":3885:4013   */\n      jump\t// out\n        /* \"#utility.yul\":4018:4145   */\n    tag_72:\n        /* \"#utility.yul\":4079:4089   */\n      0x4e487b71\n        /* \"#utility.yul\":4074:4077   */\n      0xe0\n        /* \"#utility.yul\":4070:4090   */\n      shl\n        /* \"#utility.yul\":4067:4068   */\n      0x00\n        /* \"#utility.yul\":4060:4091   */\n      mstore\n        /* \"#utility.yul\":4110:4114   */\n      0x32\n        /* \"#utility.yul\":4107:4108   */\n      0x04\n        /* \"#utility.yul\":4100:4115   */\n      mstore\n        /* \"#utility.yul\":4134:4138   */\n      0x24\n        /* \"#utility.yul\":4131:4132   */\n      0x00\n        /* \"#utility.yul\":4124:4139   */\n      revert\n        /* \"#utility.yul\":4150:4285   */\n    tag_80:\n        /* \"#utility.yul\":4189:4192   */\n      0x00\n        /* \"#utility.yul\":4210:4227   */\n      0x01\n      dup3\n      add\n        /* \"#utility.yul\":4207:4250   */\n      tag_230\n      jumpi\n        /* \"#utility.yul\":4230:4248   */\n      tag_230\n      tag_201\n      jump\t// in\n    tag_230:\n      pop\n        /* \"#utility.yul\":4277:4278   */\n      0x01\n        /* \"#utility.yul\":4266:4279   */\n      add\n      swap1\n        /* \"#utility.yul\":4150:4285   */\n      jump\t// out\n        /* \"#utility.yul\":4290:4426   */\n    tag_85:\n        /* \"#utility.yul\":4329:4332   */\n      0x00\n        /* \"#utility.yul\":4357:4362   */\n      dup2\n        /* \"#utility.yul\":4347:4386   */\n      tag_233\n      jumpi\n        /* \"#utility.yul\":4366:4384   */\n      tag_233\n      tag_201\n      jump\t// in\n    tag_233:\n      pop\n      not(0x00)\n        /* \"#utility.yul\":4402:4420   */\n      add\n      swap1\n        /* \"#utility.yul\":4290:4426   */\n      jump\t// out\n        /* \"#utility.yul\":5191:5318   */\n    tag_103:\n        /* \"#utility.yul\":5252:5262   */\n      0x4e487b71\n        /* \"#utility.yul\":5247:5250   */\n      0xe0\n        /* \"#utility.yul\":5243:5263   */\n      shl\n        /* \"#utility.yul\":5240:5241   */\n      0x00\n        /* \"#utility.yul\":5233:5264   */\n      mstore\n        /* \"#utility.yul\":5283:5287   */\n      0x41\n        /* \"#utility.yul\":5280:5281   */\n      0x04\n        /* \"#utility.yul\":5273:5288   */\n      mstore\n        /* \"#utility.yul\":5307:5311   */\n      0x24\n        /* \"#utility.yul\":5304:5305   */\n      0x00\n        /* \"#utility.yul\":5297:5312   */\n      revert\n        /* \"#utility.yul\":5323:5574   */\n    tag_139:\n        /* \"#utility.yul\":5393:5399   */\n      0x00\n        /* \"#utility.yul\":5446:5448   */\n      0x20\n        /* \"#utility.yul\":5434:5443   */\n      dup3\n        /* \"#utility.yul\":5425:5432   */\n      dup5\n        /* \"#utility.yul\":5421:5444   */\n      sub\n        /* \"#utility.yul\":5417:5449   */\n      slt\n        /* \"#utility.yul\":5414:5466   */\n      iszero\n      tag_238\n      jumpi\n        /* \"#utility.yul\":5462:5463   */\n      0x00\n        /* \"#utility.yul\":5459:5460   */\n      dup1\n        /* \"#utility.yul\":5452:5464   */\n      revert\n        /* \"#utility.yul\":5414:5466   */\n    tag_238:\n        /* \"#utility.yul\":5494:5503   */\n      dup2\n        /* \"#utility.yul\":5488:5504   */\n      mload\n        /* \"#utility.yul\":5513:5544   */\n      tag_150\n        /* \"#utility.yul\":5538:5543   */\n      dup2\n        /* \"#utility.yul\":5513:5544   */\n      tag_200\n      jump\t// in\n        /* \"#utility.yul\":5579:5704   */\n    tag_153:\n        /* \"#utility.yul\":5619:5623   */\n      0x00\n        /* \"#utility.yul\":5647:5648   */\n      dup3\n        /* \"#utility.yul\":5644:5645   */\n      dup3\n        /* \"#utility.yul\":5641:5649   */\n      lt\n        /* \"#utility.yul\":5638:5672   */\n      iszero\n      tag_242\n      jumpi\n        /* \"#utility.yul\":5652:5670   */\n      tag_242\n      tag_201\n      jump\t// in\n    tag_242:\n      pop\n        /* \"#utility.yul\":5689:5698   */\n      sub\n      swap1\n        /* \"#utility.yul\":5579:5704   */\n      jump\t// out\n        /* \"#utility.yul\":5709:5877   */\n    tag_155:\n        /* \"#utility.yul\":5749:5756   */\n      0x00\n        /* \"#utility.yul\":5815:5816   */\n      dup2\n        /* \"#utility.yul\":5811:5812   */\n      0x00\n        /* \"#utility.yul\":5807:5813   */\n      not\n        /* \"#utility.yul\":5803:5817   */\n      div\n        /* \"#utility.yul\":5800:5801   */\n      dup4\n        /* \"#utility.yul\":5797:5818   */\n      gt\n        /* \"#utility.yul\":5792:5793   */\n      dup3\n        /* \"#utility.yul\":5785:5794   */\n      iszero\n        /* \"#utility.yul\":5778:5795   */\n      iszero\n        /* \"#utility.yul\":5774:5819   */\n      and\n        /* \"#utility.yul\":5771:5842   */\n      iszero\n      tag_245\n      jumpi\n        /* \"#utility.yul\":5822:5840   */\n      tag_245\n      tag_201\n      jump\t// in\n    tag_245:\n      pop\n        /* \"#utility.yul\":5862:5871   */\n      mul\n      swap1\n        /* \"#utility.yul\":5709:5877   */\n      jump\t// out\n        /* \"#utility.yul\":5882:6099   */\n    tag_158:\n        /* \"#utility.yul\":5922:5923   */\n      0x00\n        /* \"#utility.yul\":5948:5949   */\n      dup3\n        /* \"#utility.yul\":5938:6070   */\n      tag_247\n      jumpi\n        /* \"#utility.yul\":5992:6002   */\n      0x4e487b71\n        /* \"#utility.yul\":5987:5990   */\n      0xe0\n        /* \"#utility.yul\":5983:6003   */\n      shl\n        /* \"#utility.yul\":5980:5981   */\n      0x00\n        /* \"#utility.yul\":5973:6004   */\n      mstore\n        /* \"#utility.yul\":6027:6031   */\n      0x12\n        /* \"#utility.yul\":6024:6025   */\n      0x04\n        /* \"#utility.yul\":6017:6032   */\n      mstore\n        /* \"#utility.yul\":6055:6059   */\n      0x24\n        /* \"#utility.yul\":6052:6053   */\n      0x00\n        /* \"#utility.yul\":6045:6060   */\n      revert\n        /* \"#utility.yul\":5938:6070   */\n    tag_247:\n      pop\n        /* \"#utility.yul\":6084:6093   */\n      div\n      swap1\n        /* \"#utility.yul\":5882:6099   */\n      jump\t// out\n        /* \"#utility.yul\":6406:6683   */\n    tag_169:\n        /* \"#utility.yul\":6473:6479   */\n      0x00\n        /* \"#utility.yul\":6526:6528   */\n      0x20\n        /* \"#utility.yul\":6514:6523   */\n      dup3\n        /* \"#utility.yul\":6505:6512   */\n      dup5\n        /* \"#utility.yul\":6501:6524   */\n      sub\n        /* \"#utility.yul\":6497:6529   */\n      slt\n        /* \"#utility.yul\":6494:6546   */\n      iszero\n      tag_250\n      jumpi\n        /* \"#utility.yul\":6542:6543   */\n      0x00\n        /* \"#utility.yul\":6539:6540   */\n      dup1\n        /* \"#utility.yul\":6532:6544   */\n      revert\n        /* \"#utility.yul\":6494:6546   */\n    tag_250:\n        /* \"#utility.yul\":6574:6583   */\n      dup2\n        /* \"#utility.yul\":6568:6584   */\n      mload\n        /* \"#utility.yul\":6627:6632   */\n      dup1\n        /* \"#utility.yul\":6620:6633   */\n      iszero\n        /* \"#utility.yul\":6613:6634   */\n      iszero\n        /* \"#utility.yul\":6606:6611   */\n      dup2\n        /* \"#utility.yul\":6603:6635   */\n      eq\n        /* \"#utility.yul\":6593:6653   */\n      tag_150\n      jumpi\n        /* \"#utility.yul\":6649:6650   */\n      0x00\n        /* \"#utility.yul\":6646:6647   */\n      dup1\n        /* \"#utility.yul\":6639:6651   */\n      revert\n        /* \"#utility.yul\":7864:8122   */\n    tag_202:\n        /* \"#utility.yul\":7936:7937   */\n      0x00\n        /* \"#utility.yul\":7946:8059   */\n    tag_256:\n        /* \"#utility.yul\":7960:7966   */\n      dup4\n        /* \"#utility.yul\":7957:7958   */\n      dup2\n        /* \"#utility.yul\":7954:7967   */\n      lt\n        /* \"#utility.yul\":7946:8059   */\n      iszero\n      tag_258\n      jumpi\n        /* \"#utility.yul\":8036:8047   */\n      dup2\n      dup2\n      add\n        /* \"#utility.yul\":8030:8048   */\n      mload\n        /* \"#utility.yul\":8017:8028   */\n      dup4\n      dup3\n      add\n        /* \"#utility.yul\":8010:8049   */\n      mstore\n        /* \"#utility.yul\":7982:7984   */\n      0x20\n        /* \"#utility.yul\":7975:7985   */\n      add\n        /* \"#utility.yul\":7946:8059   */\n      jump(tag_256)\n    tag_258:\n        /* \"#utility.yul\":8077:8083   */\n      dup4\n        /* \"#utility.yul\":8074:8075   */\n      dup2\n        /* \"#utility.yul\":8071:8084   */\n      gt\n        /* \"#utility.yul\":8068:8116   */\n      iszero\n      tag_259\n      jumpi\n        /* \"#utility.yul\":8112:8113   */\n      0x00\n        /* \"#utility.yul\":8103:8109   */\n      dup5\n        /* \"#utility.yul\":8098:8101   */\n      dup5\n        /* \"#utility.yul\":8094:8110   */\n      add\n        /* \"#utility.yul\":8087:8114   */\n      mstore\n        /* \"#utility.yul\":8068:8116   */\n    tag_259:\n      pop\n        /* \"#utility.yul\":7864:8122   */\n      pop\n      pop\n      pop\n      jump\t// out\n        /* \"#utility.yul\":8127:8401   */\n    tag_186:\n        /* \"#utility.yul\":8256:8259   */\n      0x00\n        /* \"#utility.yul\":8294:8300   */\n      dup3\n        /* \"#utility.yul\":8288:8301   */\n      mload\n        /* \"#utility.yul\":8310:8363   */\n      tag_261\n        /* \"#utility.yul\":8356:8362   */\n      dup2\n        /* \"#utility.yul\":8351:8354   */\n      dup5\n        /* \"#utility.yul\":8344:8348   */\n      0x20\n        /* \"#utility.yul\":8336:8342   */\n      dup8\n        /* \"#utility.yul\":8332:8349   */\n      add\n        /* \"#utility.yul\":8310:8363   */\n      tag_202\n      jump\t// in\n    tag_261:\n        /* \"#utility.yul\":8379:8395   */\n      swap2\n      swap1\n      swap2\n      add\n      swap3\n        /* \"#utility.yul\":8127:8401   */\n      swap2\n      pop\n      pop\n      jump\t// out\n        /* \"#utility.yul\":8406:8789   */\n    tag_199:\n        /* \"#utility.yul\":8555:8557   */\n      0x20\n        /* \"#utility.yul\":8544:8553   */\n      dup2\n        /* \"#utility.yul\":8537:8558   */\n      mstore\n        /* \"#utility.yul\":8518:8522   */\n      0x00\n        /* \"#utility.yul\":8587:8593   */\n      dup3\n        /* \"#utility.yul\":8581:8594   */\n      mload\n        /* \"#utility.yul\":8630:8636   */\n      dup1\n        /* \"#utility.yul\":8625:8627   */\n      0x20\n        /* \"#utility.yul\":8614:8623   */\n      dup5\n        /* \"#utility.yul\":8610:8628   */\n      add\n        /* \"#utility.yul\":8603:8637   */\n      mstore\n        /* \"#utility.yul\":8646:8712   */\n      tag_263\n        /* \"#utility.yul\":8705:8711   */\n      dup2\n        /* \"#utility.yul\":8700:8702   */\n      0x40\n        /* \"#utility.yul\":8689:8698   */\n      dup6\n        /* \"#utility.yul\":8685:8703   */\n      add\n        /* \"#utility.yul\":8680:8682   */\n      0x20\n        /* \"#utility.yul\":8672:8678   */\n      dup8\n        /* \"#utility.yul\":8668:8683   */\n      add\n        /* \"#utility.yul\":8646:8712   */\n      tag_202\n      jump\t// in\n    tag_263:\n        /* \"#utility.yul\":8773:8775   */\n      0x1f\n        /* \"#utility.yul\":8752:8767   */\n      add\n      not(0x1f)\n        /* \"#utility.yul\":8748:8777   */\n      and\n        /* \"#utility.yul\":8733:8778   */\n      swap2\n      swap1\n      swap2\n      add\n        /* \"#utility.yul\":8780:8782   */\n      0x40\n        /* \"#utility.yul\":8729:8783   */\n      add\n      swap3\n        /* \"#utility.yul\":8406:8789   */\n      swap2\n      pop\n      pop\n      jump\t// out\n\n    auxdata: 0xa2646970667358221220a801745dc7a0c5f9dc67cf6c34b080a7fe078eb6c9666ea7fd82f3181f96a27964736f6c634300080d0033\n}\n",
    "bytecode": {
      "linkReferences": {},
      "object": "60c0604052620186a060015534801561001757600080fd5b5060405161119f38038061119f8339810160408190526100369161006a565b60016000556001600160a01b0391821660a052166080526100a4565b6001600160a01b038116811461006757600080fd5b50565b6000806040838503121561007d57600080fd5b825161008881610052565b602084015190925061009981610052565b809150509250929050565b60805160a0516110bb6100e46000396000818160f3015281816104c4015281816108cc01526109af0152600081816101b701526105db01526110bb6000f3fe608060405234801561001057600080fd5b50600436106100a35760003560e01c80639168ae7211610076578063a694fc3a1161005b578063a694fc3a1461019f578063d1af0c7d146101b2578063f854a27f146101d957600080fd5b80639168ae721461012d578063940670451461017657600080fd5b80632e1a7d4d146100a8578063372500ab146100bd57806363c28db1146100c55780636588103b146100ee575b600080fd5b6100bb6100b6366004610e42565b6101fa565b005b6100bb61053e565b6100d86100d3366004610e70565b61060d565b6040516100e59190610e8d565b60405180910390f35b6101157f000000000000000000000000000000000000000000000000000000000000000081565b6040516001600160a01b0390911681526020016100e5565b61015b61013b366004610e70565b600260208190526000918252604090912080549181015460039091015483565b604080519384526020840192909252908201526060016100e5565b610115610184366004610e42565b6003602052600090815260409020546001600160a01b031681565b6100bb6101ad366004610e42565b610807565b6101157f000000000000000000000000000000000000000000000000000000000000000081565b6101ec6101e7366004610e70565b610ac8565b6040519081526020016100e5565b6002600054036102515760405162461bcd60e51b815260206004820152601f60248201527f5265656e7472616e637947756172643a207265656e7472616e742063616c6c0060448201526064015b60405180910390fd5b6002600081815533815260209190915260409020546102b25760405162461bcd60e51b815260206004820152601960248201527f596f752068617665206e6f20746f6b656e73207374616b6564000000000000006044820152606401610248565b6000818152600360205260409020546001600160a01b031633146103185760405162461bcd60e51b815260206004820152601960248201527f596f7520646f6e2774206f776e207468697320746f6b656e21000000000000006044820152606401610248565b600061032333610b00565b3360009081526002602052604081206003018054929350839290919061034a908490610efb565b9091555060009050805b3360009081526002602052604090206001015481101561040f5733600090815260026020526040902060010180548591908390811061039557610395610f13565b9060005260206000209060020201600101541480156103f057503360009081526002602052604081206001018054839081106103d3576103d3610f13565b60009182526020909120600290910201546001600160a01b031614155b156103fd5780915061040f565b8061040781610f29565b915050610354565b5033600090815260026020526040812060010180548390811061043457610434610f13565b6000918252602080832060029283020180546001600160a01b0319166001600160a01b0395909516949094179093553382529091526040812080549161047983610f42565b90915550506000838152600360205260409081902080546001600160a01b0319169055516323b872dd60e01b8152306004820152336024820152604481018490526001600160a01b037f000000000000000000000000000000000000000000000000000000000000000016906323b872dd90606401600060405180830381600087803b15801561050857600080fd5b505af115801561051c573d6000803e3d6000fd5b5050336000908152600260208190526040822042910155600190555050505050565b33600081815260026020526040812060030154909161055c90610b00565b6105669190610efb565b9050600081116105b85760405162461bcd60e51b815260206004820152601c60248201527f596f752068617665206e6f207265776172647320746f20636c61696d000000006044820152606401610248565b336000818152600260208190526040822042918101919091556003015561060a907f00000000000000000000000000000000000000000000000000000000000000006001600160a01b03169083610b59565b50565b6001600160a01b038116600090815260026020526040902054606090156107c3576001600160a01b03821660009081526002602052604081205467ffffffffffffffff81111561065f5761065f610f59565b6040519080825280602002602001820160405280156106a457816020015b604080518082019091526000808252602082015281526020019060019003908161067d5790505b5090506000805b6001600160a01b0385166000908152600260205260409020600101548110156107ba576001600160a01b03851660009081526002602052604081206001018054839081106106fb576106fb610f13565b60009182526020909120600290910201546001600160a01b0316146107a8576001600160a01b038516600090815260026020526040902060010180548290811061074757610747610f13565b60009182526020918290206040805180820190915260029092020180546001600160a01b031682526001015491810191909152835184908490811061078e5761078e610f13565b602002602001018190525081806107a490610f29565b9250505b806107b281610f29565b9150506106ab565b50909392505050565b6040805160008082526020820190925290610800565b60408051808201909152600080825260208201528152602001906001900390816107d95790505b5092915050565b6002600054036108595760405162461bcd60e51b815260206004820152601f60248201527f5265656e7472616e637947756172643a207265656e7472616e742063616c6c006044820152606401610248565b600260008181553381526020919091526040902054156108ac57600061087e33610b00565b336000908152600260205260408120600301805492935083929091906108a5908490610efb565b9091555050505b6040516331a9108f60e11b81526004810182905233906001600160a01b037f00000000000000000000000000000000000000000000000000000000000000001690636352211e90602401602060405180830381865afa158015610913573d6000803e3d6000fd5b505050506040513d601f19601f820116820180604052508101906109379190610f6f565b6001600160a01b03161461098d5760405162461bcd60e51b815260206004820152601960248201527f596f7520646f6e2774206f776e207468697320746f6b656e21000000000000006044820152606401610248565b6040516323b872dd60e01b8152336004820152306024820152604481018290527f00000000000000000000000000000000000000000000000000000000000000006001600160a01b0316906323b872dd90606401600060405180830381600087803b1580156109fb57600080fd5b505af1158015610a0f573d6000803e3d6000fd5b50506040805180820182523380825260208083018781526000838152600280845295812060018082018054808301825590845294832087519590980290970180546001600160a01b0319166001600160a01b0390951694909417845591519290950191909155908352805491945090925090610a8a83610f29565b909155505050600090815260036020908152604080832080546001600160a01b03191633908117909155835260029182905282204291015560019055565b6001600160a01b0381166000908152600260205260408120600301548190610aef84610b00565b610af99190610efb565b9392505050565b6001546001600160a01b0382166000908152600260208190526040822080549101549192610e1092909190610b359042610f8c565b610b3f9190610fa3565b610b499190610fa3565b610b539190610fc2565b92915050565b604080516001600160a01b038416602482015260448082018490528251808303909101815260649091019091526020810180517bffffffffffffffffffffffffffffffffffffffffffffffffffffffff1663a9059cbb60e01b179052610bc0908490610bc5565b505050565b6000610c1a826040518060400160405280602081526020017f5361666545524332303a206c6f772d6c6576656c2063616c6c206661696c6564815250856001600160a01b0316610caa9092919063ffffffff16565b805190915015610bc05780806020019051810190610c389190610fe4565b610bc05760405162461bcd60e51b815260206004820152602a60248201527f5361666545524332303a204552433230206f7065726174696f6e20646964206e60448201527f6f742073756363656564000000000000000000000000000000000000000000006064820152608401610248565b6060610cb98484600085610cc1565b949350505050565b606082471015610d395760405162461bcd60e51b815260206004820152602660248201527f416464726573733a20696e73756666696369656e742062616c616e636520666f60448201527f722063616c6c00000000000000000000000000000000000000000000000000006064820152608401610248565b6001600160a01b0385163b610d905760405162461bcd60e51b815260206004820152601d60248201527f416464726573733a2063616c6c20746f206e6f6e2d636f6e74726163740000006044820152606401610248565b600080866001600160a01b03168587604051610dac9190611036565b60006040518083038185875af1925050503d8060008114610de9576040519150601f19603f3d011682016040523d82523d6000602084013e610dee565b606091505b5091509150610dfe828286610e09565b979650505050505050565b60608315610e18575081610af9565b825115610e285782518084602001fd5b8160405162461bcd60e51b81526004016102489190611052565b600060208284031215610e5457600080fd5b5035919050565b6001600160a01b038116811461060a57600080fd5b600060208284031215610e8257600080fd5b8135610af981610e5b565b602080825282518282018190526000919060409081850190868401855b82811015610ed857815180516001600160a01b03168552860151868501529284019290850190600101610eaa565b5091979650505050505050565b634e487b7160e01b600052601160045260246000fd5b60008219821115610f0e57610f0e610ee5565b500190565b634e487b7160e01b600052603260045260246000fd5b600060018201610f3b57610f3b610ee5565b5060010190565b600081610f5157610f51610ee5565b506000190190565b634e487b7160e01b600052604160045260246000fd5b600060208284031215610f8157600080fd5b8151610af981610e5b565b600082821015610f9e57610f9e610ee5565b500390565b6000816000190483118215151615610fbd57610fbd610ee5565b500290565b600082610fdf57634e487b7160e01b600052601260045260246000fd5b500490565b600060208284031215610ff657600080fd5b81518015158114610af957600080fd5b60005b83811015611021578181015183820152602001611009565b83811115611030576000848401525b50505050565b60008251611048818460208701611006565b9190910192915050565b6020815260008251806020840152611071816040850160208701611006565b601f01601f1916919091016040019291505056fea2646970667358221220a801745dc7a0c5f9dc67cf6c34b080a7fe078eb6c9666ea7fd82f3181f96a27964736f6c634300080d0033",
      "opcodes": "PUSH1 0xC0 PUSH1 0x40 MSTORE PUSH3 0x186A0 PUSH1 0x1 SSTORE CALLVALUE DUP1 ISZERO PUSH2 0x17 JUMPI PUSH1 0x0 DUP1 REVERT JUMPDEST POP PUSH1 0x40 MLOAD PUSH2 0x119F CODESIZE SUB DUP1 PUSH2 0x119F DUP4 CODECOPY DUP2 ADD PUSH1 0x40 DUP2 SWAP1 MSTORE PUSH2 0x36 SWAP2 PUSH2 0x6A JUMP JUMPDEST PUSH1 0x1 PUSH1 0x0 SSTORE PUSH1 0x1 PUSH1 0x1 PUSH1 0xA0 SHL SUB SWAP2 DUP3 AND PUSH1 0xA0 MSTORE AND PUSH1 0x80 MSTORE PUSH2 0xA4 JUMP JUMPDEST PUSH1 0x1 PUSH1 0x1 PUSH1 0xA0 SHL SUB DUP2 AND DUP2 EQ PUSH2 0x67 JUMPI PUSH1 0x0 DUP1 REVERT JUMPDEST POP JUMP JUMPDEST PUSH1 0x0 DUP1 PUSH1 0x40 DUP4 DUP6 SUB SLT ISZERO PUSH2 0x7D JUMPI PUSH1 0x0 DUP1 REVERT JUMPDEST DUP3 MLOAD PUSH2 0x88 DUP2 PUSH2 0x52 JUMP JUMPDEST PUSH1 0x20 DUP5 ADD MLOAD SWAP1 SWAP3 POP PUSH2 0x99 DUP2 PUSH2 0x52 JUMP JUMPDEST DUP1 SWAP2 POP POP SWAP3 POP SWAP3 SWAP1 POP JUMP JUMPDEST PUSH1 0x80 MLOAD PUSH1 0xA0 MLOAD PUSH2 0x10BB PUSH2 0xE4 PUSH1 0x0 CODECOPY PUSH1 0x0 DUP2 DUP2 PUSH1 0xF3 ADD MSTORE DUP2 DUP2 PUSH2 0x4C4 ADD MSTORE DUP2 DUP2 PUSH2 0x8CC ADD MSTORE PUSH2 0x9AF ADD MSTORE PUSH1 0x0 DUP2 DUP2 PUSH2 0x1B7 ADD MSTORE PUSH2 0x5DB ADD MSTORE PUSH2 0x10BB PUSH1 0x0 RETURN INVALID PUSH1 0x80 PUSH1 0x40 MSTORE CALLVALUE DUP1 ISZERO PUSH2 0x10 JUMPI PUSH1 0x0 DUP1 REVERT JUMPDEST POP PUSH1 0x4 CALLDATASIZE LT PUSH2 0xA3 JUMPI PUSH1 0x0 CALLDATALOAD PUSH1 0xE0 SHR DUP1 PUSH4 0x9168AE72 GT PUSH2 0x76 JUMPI DUP1 PUSH4 0xA694FC3A GT PUSH2 0x5B JUMPI DUP1 PUSH4 0xA694FC3A EQ PUSH2 0x19F JUMPI DUP1 PUSH4 0xD1AF0C7D EQ PUSH2 0x1B2 JUMPI DUP1 PUSH4 0xF854A27F EQ PUSH2 0x1D9 JUMPI PUSH1 0x0 DUP1 REVERT JUMPDEST DUP1 PUSH4 0x9168AE72 EQ PUSH2 0x12D JUMPI DUP1 PUSH4 0x94067045 EQ PUSH2 0x176 JUMPI PUSH1 0x0 DUP1 REVERT JUMPDEST DUP1 PUSH4 0x2E1A7D4D EQ PUSH2 0xA8 JUMPI DUP1 PUSH4 0x372500AB EQ PUSH2 0xBD JUMPI DUP1 PUSH4 0x63C28DB1 EQ PUSH2 0xC5 JUMPI DUP1 PUSH4 0x6588103B EQ PUSH2 0xEE JUMPI JUMPDEST PUSH1 0x0 DUP1 REVERT JUMPDEST PUSH2 0xBB PUSH2 0xB6 CALLDATASIZE PUSH1 0x4 PUSH2 0xE42 JUMP JUMPDEST PUSH2 0x1FA JUMP JUMPDEST STOP JUMPDEST PUSH2 0xBB PUSH2 0x53E JUMP JUMPDEST PUSH2 0xD8 PUSH2 0xD3 CALLDATASIZE PUSH1 0x4 PUSH2 0xE70 JUMP JUMPDEST PUSH2 0x60D JUMP JUMPDEST PUSH1 0x40 MLOAD PUSH2 0xE5 SWAP2 SWAP1 PUSH2 0xE8D JUMP JUMPDEST PUSH1 0x40 MLOAD DUP1 SWAP2 SUB SWAP1 RETURN JUMPDEST PUSH2 0x115 PUSH32 0x0 DUP2 JUMP JUMPDEST PUSH1 0x40 MLOAD PUSH1 0x1 PUSH1 0x1 PUSH1 0xA0 SHL SUB SWAP1 SWAP2 AND DUP2 MSTORE PUSH1 0x20 ADD PUSH2 0xE5 JUMP JUMPDEST PUSH2 0x15B PUSH2 0x13B CALLDATASIZE PUSH1 0x4 PUSH2 0xE70 JUMP JUMPDEST PUSH1 0x2 PUSH1 0x20 DUP2 SWAP1 MSTORE PUSH1 0x0 SWAP2 DUP3 MSTORE PUSH1 0x40 SWAP1 SWAP2 KECCAK256 DUP1 SLOAD SWAP2 DUP2 ADD SLOAD PUSH1 0x3 SWAP1 SWAP2 ADD SLOAD DUP4 JUMP JUMPDEST PUSH1 0x40 DUP1 MLOAD SWAP4 DUP5 MSTORE PUSH1 0x20 DUP5 ADD SWAP3 SWAP1 SWAP3 MSTORE SWAP1 DUP3 ADD MSTORE PUSH1 0x60 ADD PUSH2 0xE5 JUMP JUMPDEST PUSH2 0x115 PUSH2 0x184 CALLDATASIZE PUSH1 0x4 PUSH2 0xE42 JUMP JUMPDEST PUSH1 0x3 PUSH1 0x20 MSTORE PUSH1 0x0 SWAP1 DUP2 MSTORE PUSH1 0x40 SWAP1 KECCAK256 SLOAD PUSH1 0x1 PUSH1 0x1 PUSH1 0xA0 SHL SUB AND DUP2 JUMP JUMPDEST PUSH2 0xBB PUSH2 0x1AD CALLDATASIZE PUSH1 0x4 PUSH2 0xE42 JUMP JUMPDEST PUSH2 0x807 JUMP JUMPDEST PUSH2 0x115 PUSH32 0x0 DUP2 JUMP JUMPDEST PUSH2 0x1EC PUSH2 0x1E7 CALLDATASIZE PUSH1 0x4 PUSH2 0xE70 JUMP JUMPDEST PUSH2 0xAC8 JUMP JUMPDEST PUSH1 0x40 MLOAD SWAP1 DUP2 MSTORE PUSH1 0x20 ADD PUSH2 0xE5 JUMP JUMPDEST PUSH1 0x2 PUSH1 0x0 SLOAD SUB PUSH2 0x251 JUMPI PUSH1 0x40 MLOAD PUSH3 0x461BCD PUSH1 0xE5 SHL DUP2 MSTORE PUSH1 0x20 PUSH1 0x4 DUP3 ADD MSTORE PUSH1 0x1F PUSH1 0x24 DUP3 ADD MSTORE PUSH32 0x5265656E7472616E637947756172643A207265656E7472616E742063616C6C00 PUSH1 0x44 DUP3 ADD MSTORE PUSH1 0x64 ADD JUMPDEST PUSH1 0x40 MLOAD DUP1 SWAP2 SUB SWAP1 REVERT JUMPDEST PUSH1 0x2 PUSH1 0x0 DUP2 DUP2 SSTORE CALLER DUP2 MSTORE PUSH1 0x20 SWAP2 SWAP1 SWAP2 MSTORE PUSH1 0x40 SWAP1 KECCAK256 SLOAD PUSH2 0x2B2 JUMPI PUSH1 0x40 MLOAD PUSH3 0x461BCD PUSH1 0xE5 SHL DUP2 MSTORE PUSH1 0x20 PUSH1 0x4 DUP3 ADD MSTORE PUSH1 0x19 PUSH1 0x24 DUP3 ADD MSTORE PUSH32 0x596F752068617665206E6F20746F6B656E73207374616B656400000000000000 PUSH1 0x44 DUP3 ADD MSTORE PUSH1 0x64 ADD PUSH2 0x248 JUMP JUMPDEST PUSH1 0x0 DUP2 DUP2 MSTORE PUSH1 0x3 PUSH1 0x20 MSTORE PUSH1 0x40 SWAP1 KECCAK256 SLOAD PUSH1 0x1 PUSH1 0x1 PUSH1 0xA0 SHL SUB AND CALLER EQ PUSH2 0x318 JUMPI PUSH1 0x40 MLOAD PUSH3 0x461BCD PUSH1 0xE5 SHL DUP2 MSTORE PUSH1 0x20 PUSH1 0x4 DUP3 ADD MSTORE PUSH1 0x19 PUSH1 0x24 DUP3 ADD MSTORE PUSH32 0x596F7520646F6E2774206F776E207468697320746F6B656E2100000000000000 PUSH1 0x44 DUP3 ADD MSTORE PUSH1 0x64 ADD PUSH2 0x248 JUMP JUMPDEST PUSH1 0x0 PUSH2 0x323 CALLER PUSH2 0xB00 JUMP JUMPDEST CALLER PUSH1 0x0 SWAP1 DUP2 MSTORE PUSH1 0x2 PUSH1 0x20 MSTORE PUSH1 0x40 DUP2 KECCAK256 PUSH1 0x3 ADD DUP1 SLOAD SWAP3 SWAP4 POP DUP4 SWAP3 SWAP1 SWAP2 SWAP1 PUSH2 0x34A SWAP1 DUP5 SWAP1 PUSH2 0xEFB JUMP JUMPDEST SWAP1 SWAP2 SSTORE POP PUSH1 0x0 SWAP1 POP DUP1 JUMPDEST CALLER PUSH1 0x0 SWAP1 DUP2 MSTORE PUSH1 0x2 PUSH1 0x20 MSTORE PUSH1 0x40 SWAP1 KECCAK256 PUSH1 0x1 ADD SLOAD DUP2 LT ISZERO PUSH2 0x40F JUMPI CALLER PUSH1 0x0 SWAP1 DUP2 MSTORE PUSH1 0x2 PUSH1 0x20 MSTORE PUSH1 0x40 SWAP1 KECCAK256 PUSH1 0x1 ADD DUP1 SLOAD DUP6 SWAP2 SWAP1 DUP4 SWAP1 DUP2 LT PUSH2 0x395 JUMPI PUSH2 0x395 PUSH2 0xF13 JUMP JUMPDEST SWAP1 PUSH1 0x0 MSTORE PUSH1 0x20 PUSH1 0x0 KECCAK256 SWAP1 PUSH1 0x2 MUL ADD PUSH1 0x1 ADD SLOAD EQ DUP1 ISZERO PUSH2 0x3F0 JUMPI POP CALLER PUSH1 0x0 SWAP1 DUP2 MSTORE PUSH1 0x2 PUSH1 0x20 MSTORE PUSH1 0x40 DUP2 KECCAK256 PUSH1 0x1 ADD DUP1 SLOAD DUP4 SWAP1 DUP2 LT PUSH2 0x3D3 JUMPI PUSH2 0x3D3 PUSH2 0xF13 JUMP JUMPDEST PUSH1 0x0 SWAP2 DUP3 MSTORE PUSH1 0x20 SWAP1 SWAP2 KECCAK256 PUSH1 0x2 SWAP1 SWAP2 MUL ADD SLOAD PUSH1 0x1 PUSH1 0x1 PUSH1 0xA0 SHL SUB AND EQ ISZERO JUMPDEST ISZERO PUSH2 0x3FD JUMPI DUP1 SWAP2 POP PUSH2 0x40F JUMP JUMPDEST DUP1 PUSH2 0x407 DUP2 PUSH2 0xF29 JUMP JUMPDEST SWAP2 POP POP PUSH2 0x354 JUMP JUMPDEST POP CALLER PUSH1 0x0 SWAP1 DUP2 MSTORE PUSH1 0x2 PUSH1 0x20 MSTORE PUSH1 0x40 DUP2 KECCAK256 PUSH1 0x1 ADD DUP1 SLOAD DUP4 SWAP1 DUP2 LT PUSH2 0x434 JUMPI PUSH2 0x434 PUSH2 0xF13 JUMP JUMPDEST PUSH1 0x0 SWAP2 DUP3 MSTORE PUSH1 0x20 DUP1 DUP4 KECCAK256 PUSH1 0x2 SWAP3 DUP4 MUL ADD DUP1 SLOAD PUSH1 0x1 PUSH1 0x1 PUSH1 0xA0 SHL SUB NOT AND PUSH1 0x1 PUSH1 0x1 PUSH1 0xA0 SHL SUB SWAP6 SWAP1 SWAP6 AND SWAP5 SWAP1 SWAP5 OR SWAP1 SWAP4 SSTORE CALLER DUP3 MSTORE SWAP1 SWAP2 MSTORE PUSH1 0x40 DUP2 KECCAK256 DUP1 SLOAD SWAP2 PUSH2 0x479 DUP4 PUSH2 0xF42 JUMP JUMPDEST SWAP1 SWAP2 SSTORE POP POP PUSH1 0x0 DUP4 DUP2 MSTORE PUSH1 0x3 PUSH1 0x20 MSTORE PUSH1 0x40 SWAP1 DUP2 SWAP1 KECCAK256 DUP1 SLOAD PUSH1 0x1 PUSH1 0x1 PUSH1 0xA0 SHL SUB NOT AND SWAP1 SSTORE MLOAD PUSH4 0x23B872DD PUSH1 0xE0 SHL DUP2 MSTORE ADDRESS PUSH1 0x4 DUP3 ADD MSTORE CALLER PUSH1 0x24 DUP3 ADD MSTORE PUSH1 0x44 DUP2 ADD DUP5 SWAP1 MSTORE PUSH1 0x1 PUSH1 0x1 PUSH1 0xA0 SHL SUB PUSH32 0x0 AND SWAP1 PUSH4 0x23B872DD SWAP1 PUSH1 0x64 ADD PUSH1 0x0 PUSH1 0x40 MLOAD DUP1 DUP4 SUB DUP2 PUSH1 0x0 DUP8 DUP1 EXTCODESIZE ISZERO DUP1 ISZERO PUSH2 0x508 JUMPI PUSH1 0x0 DUP1 REVERT JUMPDEST POP GAS CALL ISZERO DUP1 ISZERO PUSH2 0x51C JUMPI RETURNDATASIZE PUSH1 0x0 DUP1 RETURNDATACOPY RETURNDATASIZE PUSH1 0x0 REVERT JUMPDEST POP POP CALLER PUSH1 0x0 SWAP1 DUP2 MSTORE PUSH1 0x2 PUSH1 0x20 DUP2 SWAP1 MSTORE PUSH1 0x40 DUP3 KECCAK256 TIMESTAMP SWAP2 ADD SSTORE PUSH1 0x1 SWAP1 SSTORE POP POP POP POP POP JUMP JUMPDEST CALLER PUSH1 0x0 DUP2 DUP2 MSTORE PUSH1 0x2 PUSH1 0x20 MSTORE PUSH1 0x40 DUP2 KECCAK256 PUSH1 0x3 ADD SLOAD SWAP1 SWAP2 PUSH2 0x55C SWAP1 PUSH2 0xB00 JUMP JUMPDEST PUSH2 0x566 SWAP2 SWAP1 PUSH2 0xEFB JUMP JUMPDEST SWAP1 POP PUSH1 0x0 DUP2 GT PUSH2 0x5B8 JUMPI PUSH1 0x40 MLOAD PUSH3 0x461BCD PUSH1 0xE5 SHL DUP2 MSTORE PUSH1 0x20 PUSH1 0x4 DUP3 ADD MSTORE PUSH1 0x1C PUSH1 0x24 DUP3 ADD MSTORE PUSH32 0x596F752068617665206E6F207265776172647320746F20636C61696D00000000 PUSH1 0x44 DUP3 ADD MSTORE PUSH1 0x64 ADD PUSH2 0x248 JUMP JUMPDEST CALLER PUSH1 0x0 DUP2 DUP2 MSTORE PUSH1 0x2 PUSH1 0x20 DUP2 SWAP1 MSTORE PUSH1 0x40 DUP3 KECCAK256 TIMESTAMP SWAP2 DUP2 ADD SWAP2 SWAP1 SWAP2 SSTORE PUSH1 0x3 ADD SSTORE PUSH2 0x60A SWAP1 PUSH32 0x0 PUSH1 0x1 PUSH1 0x1 PUSH1 0xA0 SHL SUB AND SWAP1 DUP4 PUSH2 0xB59 JUMP JUMPDEST POP JUMP JUMPDEST PUSH1 0x1 PUSH1 0x1 PUSH1 0xA0 SHL SUB DUP2 AND PUSH1 0x0 SWAP1 DUP2 MSTORE PUSH1 0x2 PUSH1 0x20 MSTORE PUSH1 0x40 SWAP1 KECCAK256 SLOAD PUSH1 0x60 SWAP1 ISZERO PUSH2 0x7C3 JUMPI PUSH1 0x1 PUSH1 0x1 PUSH1 0xA0 SHL SUB DUP3 AND PUSH1 0x0 SWAP1 DUP2 MSTORE PUSH1 0x2 PUSH1 0x20 MSTORE PUSH1 0x40 DUP2 KECCAK256 SLOAD PUSH8 0xFFFFFFFFFFFFFFFF DUP2 GT ISZERO PUSH2 0x65F JUMPI PUSH2 0x65F PUSH2 0xF59 JUMP JUMPDEST PUSH1 0x40 MLOAD SWAP1 DUP1 DUP3 MSTORE DUP1 PUSH1 0x20 MUL PUSH1 0x20 ADD DUP3 ADD PUSH1 0x40 MSTORE DUP1 ISZERO PUSH2 0x6A4 JUMPI DUP2 PUSH1 0x20 ADD JUMPDEST PUSH1 0x40 DUP1 MLOAD DUP1 DUP3 ADD SWAP1 SWAP2 MSTORE PUSH1 0x0 DUP1 DUP3 MSTORE PUSH1 0x20 DUP3 ADD MSTORE DUP2 MSTORE PUSH1 0x20 ADD SWAP1 PUSH1 0x1 SWAP1 SUB SWAP1 DUP2 PUSH2 0x67D JUMPI SWAP1 POP JUMPDEST POP SWAP1 POP PUSH1 0x0 DUP1 JUMPDEST PUSH1 0x1 PUSH1 0x1 PUSH1 0xA0 SHL SUB DUP6 AND PUSH1 0x0 SWAP1 DUP2 MSTORE PUSH1 0x2 PUSH1 0x20 MSTORE PUSH1 0x40 SWAP1 KECCAK256 PUSH1 0x1 ADD SLOAD DUP2 LT ISZERO PUSH2 0x7BA JUMPI PUSH1 0x1 PUSH1 0x1 PUSH1 0xA0 SHL SUB DUP6 AND PUSH1 0x0 SWAP1 DUP2 MSTORE PUSH1 0x2 PUSH1 0x20 MSTORE PUSH1 0x40 DUP2 KECCAK256 PUSH1 0x1 ADD DUP1 SLOAD DUP4 SWAP1 DUP2 LT PUSH2 0x6FB JUMPI PUSH2 0x6FB PUSH2 0xF13 JUMP JUMPDEST PUSH1 0x0 SWAP2 DUP3 MSTORE PUSH1 0x20 SWAP1 SWAP2 KECCAK256 PUSH1 0x2 SWAP1 SWAP2 MUL ADD SLOAD PUSH1 0x1 PUSH1 0x1 PUSH1 0xA0 SHL SUB AND EQ PUSH2 0x7A8 JUMPI PUSH1 0x1 PUSH1 0x1 PUSH1 0xA0 SHL SUB DUP6 AND PUSH1 0x0 SWAP1 DUP2 MSTORE PUSH1 0x2 PUSH1 0x20 MSTORE PUSH1 0x40 SWAP1 KECCAK256 PUSH1 0x1 ADD DUP1 SLOAD DUP3 SWAP1 DUP2 LT PUSH2 0x747 JUMPI PUSH2 0x747 PUSH2 0xF13 JUMP JUMPDEST PUSH1 0x0 SWAP2 DUP3 MSTORE PUSH1 0x20 SWAP2 DUP3 SWAP1 KECCAK256 PUSH1 0x40 DUP1 MLOAD DUP1 DUP3 ADD SWAP1 SWAP2 MSTORE PUSH1 0x2 SWAP1 SWAP3 MUL ADD DUP1 SLOAD PUSH1 0x1 PUSH1 0x1 PUSH1 0xA0 SHL SUB AND DUP3 MSTORE PUSH1 0x1 ADD SLOAD SWAP2 DUP2 ADD SWAP2 SWAP1 SWAP2 MSTORE DUP4 MLOAD DUP5 SWAP1 DUP5 SWAP1 DUP2 LT PUSH2 0x78E JUMPI PUSH2 0x78E PUSH2 0xF13 JUMP JUMPDEST PUSH1 0x20 MUL PUSH1 0x20 ADD ADD DUP2 SWAP1 MSTORE POP DUP2 DUP1 PUSH2 0x7A4 SWAP1 PUSH2 0xF29 JUMP JUMPDEST SWAP3 POP POP JUMPDEST DUP1 PUSH2 0x7B2 DUP2 PUSH2 0xF29 JUMP JUMPDEST SWAP2 POP POP PUSH2 0x6AB JUMP JUMPDEST POP SWAP1 SWAP4 SWAP3 POP POP POP JUMP JUMPDEST PUSH1 0x40 DUP1 MLOAD PUSH1 0x0 DUP1 DUP3 MSTORE PUSH1 0x20 DUP3 ADD SWAP1 SWAP3 MSTORE SWAP1 PUSH2 0x800 JUMP JUMPDEST PUSH1 0x40 DUP1 MLOAD DUP1 DUP3 ADD SWAP1 SWAP2 MSTORE PUSH1 0x0 DUP1 DUP3 MSTORE PUSH1 0x20 DUP3 ADD MSTORE DUP2 MSTORE PUSH1 0x20 ADD SWAP1 PUSH1 0x1 SWAP1 SUB SWAP1 DUP2 PUSH2 0x7D9 JUMPI SWAP1 POP JUMPDEST POP SWAP3 SWAP2 POP POP JUMP JUMPDEST PUSH1 0x2 PUSH1 0x0 SLOAD SUB PUSH2 0x859 JUMPI PUSH1 0x40 MLOAD PUSH3 0x461BCD PUSH1 0xE5 SHL DUP2 MSTORE PUSH1 0x20 PUSH1 0x4 DUP3 ADD MSTORE PUSH1 0x1F PUSH1 0x24 DUP3 ADD MSTORE PUSH32 0x5265656E7472616E637947756172643A207265656E7472616E742063616C6C00 PUSH1 0x44 DUP3 ADD MSTORE PUSH1 0x64 ADD PUSH2 0x248 JUMP JUMPDEST PUSH1 0x2 PUSH1 0x0 DUP2 DUP2 SSTORE CALLER DUP2 MSTORE PUSH1 0x20 SWAP2 SWAP1 SWAP2 MSTORE PUSH1 0x40 SWAP1 KECCAK256 SLOAD ISZERO PUSH2 0x8AC JUMPI PUSH1 0x0 PUSH2 0x87E CALLER PUSH2 0xB00 JUMP JUMPDEST CALLER PUSH1 0x0 SWAP1 DUP2 MSTORE PUSH1 0x2 PUSH1 0x20 MSTORE PUSH1 0x40 DUP2 KECCAK256 PUSH1 0x3 ADD DUP1 SLOAD SWAP3 SWAP4 POP DUP4 SWAP3 SWAP1 SWAP2 SWAP1 PUSH2 0x8A5 SWAP1 DUP5 SWAP1 PUSH2 0xEFB JUMP JUMPDEST SWAP1 SWAP2 SSTORE POP POP POP JUMPDEST PUSH1 0x40 MLOAD PUSH4 0x31A9108F PUSH1 0xE1 SHL DUP2 MSTORE PUSH1 0x4 DUP2 ADD DUP3 SWAP1 MSTORE CALLER SWAP1 PUSH1 0x1 PUSH1 0x1 PUSH1 0xA0 SHL SUB PUSH32 0x0 AND SWAP1 PUSH4 0x6352211E SWAP1 PUSH1 0x24 ADD PUSH1 0x20 PUSH1 0x40 MLOAD DUP1 DUP4 SUB DUP2 DUP7 GAS STATICCALL ISZERO DUP1 ISZERO PUSH2 0x913 JUMPI RETURNDATASIZE PUSH1 0x0 DUP1 RETURNDATACOPY RETURNDATASIZE PUSH1 0x0 REVERT JUMPDEST POP POP POP POP PUSH1 0x40 MLOAD RETURNDATASIZE PUSH1 0x1F NOT PUSH1 0x1F DUP3 ADD AND DUP3 ADD DUP1 PUSH1 0x40 MSTORE POP DUP2 ADD SWAP1 PUSH2 0x937 SWAP2 SWAP1 PUSH2 0xF6F JUMP JUMPDEST PUSH1 0x1 PUSH1 0x1 PUSH1 0xA0 SHL SUB AND EQ PUSH2 0x98D JUMPI PUSH1 0x40 MLOAD PUSH3 0x461BCD PUSH1 0xE5 SHL DUP2 MSTORE PUSH1 0x20 PUSH1 0x4 DUP3 ADD MSTORE PUSH1 0x19 PUSH1 0x24 DUP3 ADD MSTORE PUSH32 0x596F7520646F6E2774206F776E207468697320746F6B656E2100000000000000 PUSH1 0x44 DUP3 ADD MSTORE PUSH1 0x64 ADD PUSH2 0x248 JUMP JUMPDEST PUSH1 0x40 MLOAD PUSH4 0x23B872DD PUSH1 0xE0 SHL DUP2 MSTORE CALLER PUSH1 0x4 DUP3 ADD MSTORE ADDRESS PUSH1 0x24 DUP3 ADD MSTORE PUSH1 0x44 DUP2 ADD DUP3 SWAP1 MSTORE PUSH32 0x0 PUSH1 0x1 PUSH1 0x1 PUSH1 0xA0 SHL SUB AND SWAP1 PUSH4 0x23B872DD SWAP1 PUSH1 0x64 ADD PUSH1 0x0 PUSH1 0x40 MLOAD DUP1 DUP4 SUB DUP2 PUSH1 0x0 DUP8 DUP1 EXTCODESIZE ISZERO DUP1 ISZERO PUSH2 0x9FB JUMPI PUSH1 0x0 DUP1 REVERT JUMPDEST POP GAS CALL ISZERO DUP1 ISZERO PUSH2 0xA0F JUMPI RETURNDATASIZE PUSH1 0x0 DUP1 RETURNDATACOPY RETURNDATASIZE PUSH1 0x0 REVERT JUMPDEST POP POP PUSH1 0x40 DUP1 MLOAD DUP1 DUP3 ADD DUP3 MSTORE CALLER DUP1 DUP3 MSTORE PUSH1 0x20 DUP1 DUP4 ADD DUP8 DUP2 MSTORE PUSH1 0x0 DUP4 DUP2 MSTORE PUSH1 0x2 DUP1 DUP5 MSTORE SWAP6 DUP2 KECCAK256 PUSH1 0x1 DUP1 DUP3 ADD DUP1 SLOAD DUP1 DUP4 ADD DUP3 SSTORE SWAP1 DUP5 MSTORE SWAP5 DUP4 KECCAK256 DUP8 MLOAD SWAP6 SWAP1 SWAP9 MUL SWAP1 SWAP8 ADD DUP1 SLOAD PUSH1 0x1 PUSH1 0x1 PUSH1 0xA0 SHL SUB NOT AND PUSH1 0x1 PUSH1 0x1 PUSH1 0xA0 SHL SUB SWAP1 SWAP6 AND SWAP5 SWAP1 SWAP5 OR DUP5 SSTORE SWAP2 MLOAD SWAP3 SWAP1 SWAP6 ADD SWAP2 SWAP1 SWAP2 SSTORE SWAP1 DUP4 MSTORE DUP1 SLOAD SWAP2 SWAP5 POP SWAP1 SWAP3 POP SWAP1 PUSH2 0xA8A DUP4 PUSH2 0xF29 JUMP JUMPDEST SWAP1 SWAP2 SSTORE POP POP POP PUSH1 0x0 SWAP1 DUP2 MSTORE PUSH1 0x3 PUSH1 0x20 SWAP1 DUP2 MSTORE PUSH1 0x40 DUP1 DUP4 KECCAK256 DUP1 SLOAD PUSH1 0x1 PUSH1 0x1 PUSH1 0xA0 SHL SUB NOT AND CALLER SWAP1 DUP2 OR SWAP1 SWAP2 SSTORE DUP4 MSTORE PUSH1 0x2 SWAP2 DUP3 SWAP1 MSTORE DUP3 KECCAK256 TIMESTAMP SWAP2 ADD SSTORE PUSH1 0x1 SWAP1 SSTORE JUMP JUMPDEST PUSH1 0x1 PUSH1 0x1 PUSH1 0xA0 SHL SUB DUP2 AND PUSH1 0x0 SWAP1 DUP2 MSTORE PUSH1 0x2 PUSH1 0x20 MSTORE PUSH1 0x40 DUP2 KECCAK256 PUSH1 0x3 ADD SLOAD DUP2 SWAP1 PUSH2 0xAEF DUP5 PUSH2 0xB00 JUMP JUMPDEST PUSH2 0xAF9 SWAP2 SWAP1 PUSH2 0xEFB JUMP JUMPDEST SWAP4 SWAP3 POP POP POP JUMP JUMPDEST PUSH1 0x1 SLOAD PUSH1 0x1 PUSH1 0x1 PUSH1 0xA0 SHL SUB DUP3 AND PUSH1 0x0 SWAP1 DUP2 MSTORE PUSH1 0x2 PUSH1 0x20 DUP2 SWAP1 MSTORE PUSH1 0x40 DUP3 KECCAK256 DUP1 SLOAD SWAP2 ADD SLOAD SWAP2 SWAP3 PUSH2 0xE10 SWAP3 SWAP1 SWAP2 SWAP1 PUSH2 0xB35 SWAP1 TIMESTAMP PUSH2 0xF8C JUMP JUMPDEST PUSH2 0xB3F SWAP2 SWAP1 PUSH2 0xFA3 JUMP JUMPDEST PUSH2 0xB49 SWAP2 SWAP1 PUSH2 0xFA3 JUMP JUMPDEST PUSH2 0xB53 SWAP2 SWAP1 PUSH2 0xFC2 JUMP JUMPDEST SWAP3 SWAP2 POP POP JUMP JUMPDEST PUSH1 0x40 DUP1 MLOAD PUSH1 0x1 PUSH1 0x1 PUSH1 0xA0 SHL SUB DUP5 AND PUSH1 0x24 DUP3 ADD MSTORE PUSH1 0x44 DUP1 DUP3 ADD DUP5 SWAP1 MSTORE DUP3 MLOAD DUP1 DUP4 SUB SWAP1 SWAP2 ADD DUP2 MSTORE PUSH1 0x64 SWAP1 SWAP2 ADD SWAP1 SWAP2 MSTORE PUSH1 0x20 DUP2 ADD DUP1 MLOAD PUSH28 0xFFFFFFFFFFFFFFFFFFFFFFFFFFFFFFFFFFFFFFFFFFFFFFFFFFFFFFFF AND PUSH4 0xA9059CBB PUSH1 0xE0 SHL OR SWAP1 MSTORE PUSH2 0xBC0 SWAP1 DUP5 SWAP1 PUSH2 0xBC5 JUMP JUMPDEST POP POP POP JUMP JUMPDEST PUSH1 0x0 PUSH2 0xC1A DUP3 PUSH1 0x40 MLOAD DUP1 PUSH1 0x40 ADD PUSH1 0x40 MSTORE DUP1 PUSH1 0x20 DUP2 MSTORE PUSH1 0x20 ADD PUSH32 0x5361666545524332303A206C6F772D6C6576656C2063616C6C206661696C6564 DUP2 MSTORE POP DUP6 PUSH1 0x1 PUSH1 0x1 PUSH1 0xA0 SHL SUB AND PUSH2 0xCAA SWAP1 SWAP3 SWAP2 SWAP1 PUSH4 0xFFFFFFFF AND JUMP JUMPDEST DUP1 MLOAD SWAP1 SWAP2 POP ISZERO PUSH2 0xBC0 JUMPI DUP1 DUP1 PUSH1 0x20 ADD SWAP1 MLOAD DUP2 ADD SWAP1 PUSH2 0xC38 SWAP2 SWAP1 PUSH2 0xFE4 JUMP JUMPDEST PUSH2 0xBC0 JUMPI PUSH1 0x40 MLOAD PUSH3 0x461BCD PUSH1 0xE5 SHL DUP2 MSTORE PUSH1 0x20 PUSH1 0x4 DUP3 ADD MSTORE PUSH1 0x2A PUSH1 0x24 DUP3 ADD MSTORE PUSH32 0x5361666545524332303A204552433230206F7065726174696F6E20646964206E PUSH1 0x44 DUP3 ADD MSTORE PUSH32 0x6F74207375636365656400000000000000000000000000000000000000000000 PUSH1 0x64 DUP3 ADD MSTORE PUSH1 0x84 ADD PUSH2 0x248 JUMP JUMPDEST PUSH1 0x60 PUSH2 0xCB9 DUP5 DUP5 PUSH1 0x0 DUP6 PUSH2 0xCC1 JUMP JUMPDEST SWAP5 SWAP4 POP POP POP POP JUMP JUMPDEST PUSH1 0x60 DUP3 SELFBALANCE LT ISZERO PUSH2 0xD39 JUMPI PUSH1 0x40 MLOAD PUSH3 0x461BCD PUSH1 0xE5 SHL DUP2 MSTORE PUSH1 0x20 PUSH1 0x4 DUP3 ADD MSTORE PUSH1 0x26 PUSH1 0x24 DUP3 ADD MSTORE PUSH32 0x416464726573733A20696E73756666696369656E742062616C616E636520666F PUSH1 0x44 DUP3 ADD MSTORE PUSH32 0x722063616C6C0000000000000000000000000000000000000000000000000000 PUSH1 0x64 DUP3 ADD MSTORE PUSH1 0x84 ADD PUSH2 0x248 JUMP JUMPDEST PUSH1 0x1 PUSH1 0x1 PUSH1 0xA0 SHL SUB DUP6 AND EXTCODESIZE PUSH2 0xD90 JUMPI PUSH1 0x40 MLOAD PUSH3 0x461BCD PUSH1 0xE5 SHL DUP2 MSTORE PUSH1 0x20 PUSH1 0x4 DUP3 ADD MSTORE PUSH1 0x1D PUSH1 0x24 DUP3 ADD MSTORE PUSH32 0x416464726573733A2063616C6C20746F206E6F6E2D636F6E7472616374000000 PUSH1 0x44 DUP3 ADD MSTORE PUSH1 0x64 ADD PUSH2 0x248 JUMP JUMPDEST PUSH1 0x0 DUP1 DUP7 PUSH1 0x1 PUSH1 0x1 PUSH1 0xA0 SHL SUB AND DUP6 DUP8 PUSH1 0x40 MLOAD PUSH2 0xDAC SWAP2 SWAP1 PUSH2 0x1036 JUMP JUMPDEST PUSH1 0x0 PUSH1 0x40 MLOAD DUP1 DUP4 SUB DUP2 DUP6 DUP8 GAS CALL SWAP3 POP POP POP RETURNDATASIZE DUP1 PUSH1 0x0 DUP2 EQ PUSH2 0xDE9 JUMPI PUSH1 0x40 MLOAD SWAP2 POP PUSH1 0x1F NOT PUSH1 0x3F RETURNDATASIZE ADD AND DUP3 ADD PUSH1 0x40 MSTORE RETURNDATASIZE DUP3 MSTORE RETURNDATASIZE PUSH1 0x0 PUSH1 0x20 DUP5 ADD RETURNDATACOPY PUSH2 0xDEE JUMP JUMPDEST PUSH1 0x60 SWAP2 POP JUMPDEST POP SWAP2 POP SWAP2 POP PUSH2 0xDFE DUP3 DUP3 DUP7 PUSH2 0xE09 JUMP JUMPDEST SWAP8 SWAP7 POP POP POP POP POP POP POP JUMP JUMPDEST PUSH1 0x60 DUP4 ISZERO PUSH2 0xE18 JUMPI POP DUP2 PUSH2 0xAF9 JUMP JUMPDEST DUP3 MLOAD ISZERO PUSH2 0xE28 JUMPI DUP3 MLOAD DUP1 DUP5 PUSH1 0x20 ADD REVERT JUMPDEST DUP2 PUSH1 0x40 MLOAD PUSH3 0x461BCD PUSH1 0xE5 SHL DUP2 MSTORE PUSH1 0x4 ADD PUSH2 0x248 SWAP2 SWAP1 PUSH2 0x1052 JUMP JUMPDEST PUSH1 0x0 PUSH1 0x20 DUP3 DUP5 SUB SLT ISZERO PUSH2 0xE54 JUMPI PUSH1 0x0 DUP1 REVERT JUMPDEST POP CALLDATALOAD SWAP2 SWAP1 POP JUMP JUMPDEST PUSH1 0x1 PUSH1 0x1 PUSH1 0xA0 SHL SUB DUP2 AND DUP2 EQ PUSH2 0x60A JUMPI PUSH1 0x0 DUP1 REVERT JUMPDEST PUSH1 0x0 PUSH1 0x20 DUP3 DUP5 SUB SLT ISZERO PUSH2 0xE82 JUMPI PUSH1 0x0 DUP1 REVERT JUMPDEST DUP2 CALLDATALOAD PUSH2 0xAF9 DUP2 PUSH2 0xE5B JUMP JUMPDEST PUSH1 0x20 DUP1 DUP3 MSTORE DUP3 MLOAD DUP3 DUP3 ADD DUP2 SWAP1 MSTORE PUSH1 0x0 SWAP2 SWAP1 PUSH1 0x40 SWAP1 DUP2 DUP6 ADD SWAP1 DUP7 DUP5 ADD DUP6 JUMPDEST DUP3 DUP2 LT ISZERO PUSH2 0xED8 JUMPI DUP2 MLOAD DUP1 MLOAD PUSH1 0x1 PUSH1 0x1 PUSH1 0xA0 SHL SUB AND DUP6 MSTORE DUP7 ADD MLOAD DUP7 DUP6 ADD MSTORE SWAP3 DUP5 ADD SWAP3 SWAP1 DUP6 ADD SWAP1 PUSH1 0x1 ADD PUSH2 0xEAA JUMP JUMPDEST POP SWAP2 SWAP8 SWAP7 POP POP POP POP POP POP POP JUMP JUMPDEST PUSH4 0x4E487B71 PUSH1 0xE0 SHL PUSH1 0x0 MSTORE PUSH1 0x11 PUSH1 0x4 MSTORE PUSH1 0x24 PUSH1 0x0 REVERT JUMPDEST PUSH1 0x0 DUP3 NOT DUP3 GT ISZERO PUSH2 0xF0E JUMPI PUSH2 0xF0E PUSH2 0xEE5 JUMP JUMPDEST POP ADD SWAP1 JUMP JUMPDEST PUSH4 0x4E487B71 PUSH1 0xE0 SHL PUSH1 0x0 MSTORE PUSH1 0x32 PUSH1 0x4 MSTORE PUSH1 0x24 PUSH1 0x0 REVERT JUMPDEST PUSH1 0x0 PUSH1 0x1 DUP3 ADD PUSH2 0xF3B JUMPI PUSH2 0xF3B PUSH2 0xEE5 JUMP JUMPDEST POP PUSH1 0x1 ADD SWAP1 JUMP JUMPDEST PUSH1 0x0 DUP2 PUSH2 0xF51 JUMPI PUSH2 0xF51 PUSH2 0xEE5 JUMP JUMPDEST POP PUSH1 0x0 NOT ADD SWAP1 JUMP JUMPDEST PUSH4 0x4E487B71 PUSH1 0xE0 SHL PUSH1 0x0 MSTORE PUSH1 0x41 PUSH1 0x4 MSTORE PUSH1 0x24 PUSH1 0x0 REVERT JUMPDEST PUSH1 0x0 PUSH1 0x20 DUP3 DUP5 SUB SLT ISZERO PUSH2 0xF81 JUMPI PUSH1 0x0 DUP1 REVERT JUMPDEST DUP2 MLOAD PUSH2 0xAF9 DUP2 PUSH2 0xE5B JUMP JUMPDEST PUSH1 0x0 DUP3 DUP3 LT ISZERO PUSH2 0xF9E JUMPI PUSH2 0xF9E PUSH2 0xEE5 JUMP JUMPDEST POP SUB SWAP1 JUMP JUMPDEST PUSH1 0x0 DUP2 PUSH1 0x0 NOT DIV DUP4 GT DUP3 ISZERO ISZERO AND ISZERO PUSH2 0xFBD JUMPI PUSH2 0xFBD PUSH2 0xEE5 JUMP JUMPDEST POP MUL SWAP1 JUMP JUMPDEST PUSH1 0x0 DUP3 PUSH2 0xFDF JUMPI PUSH4 0x4E487B71 PUSH1 0xE0 SHL PUSH1 0x0 MSTORE PUSH1 0x12 PUSH1 0x4 MSTORE PUSH1 0x24 PUSH1 0x0 REVERT JUMPDEST POP DIV SWAP1 JUMP JUMPDEST PUSH1 0x0 PUSH1 0x20 DUP3 DUP5 SUB SLT ISZERO PUSH2 0xFF6 JUMPI PUSH1 0x0 DUP1 REVERT JUMPDEST DUP2 MLOAD DUP1 ISZERO ISZERO DUP2 EQ PUSH2 0xAF9 JUMPI PUSH1 0x0 DUP1 REVERT JUMPDEST PUSH1 0x0 JUMPDEST DUP4 DUP2 LT ISZERO PUSH2 0x1021 JUMPI DUP2 DUP2 ADD MLOAD DUP4 DUP3 ADD MSTORE PUSH1 0x20 ADD PUSH2 0x1009 JUMP JUMPDEST DUP4 DUP2 GT ISZERO PUSH2 0x1030 JUMPI PUSH1 0x0 DUP5 DUP5 ADD MSTORE JUMPDEST POP POP POP POP JUMP JUMPDEST PUSH1 0x0 DUP3 MLOAD PUSH2 0x1048 DUP2 DUP5 PUSH1 0x20 DUP8 ADD PUSH2 0x1006 JUMP JUMPDEST SWAP2 SWAP1 SWAP2 ADD SWAP3 SWAP2 POP POP JUMP JUMPDEST PUSH1 0x20 DUP2 MSTORE PUSH1 0x0 DUP3 MLOAD DUP1 PUSH1 0x20 DUP5 ADD MSTORE PUSH2 0x1071 DUP2 PUSH1 0x40 DUP6 ADD PUSH1 0x20 DUP8 ADD PUSH2 0x1006 JUMP JUMPDEST PUSH1 0x1F ADD PUSH1 0x1F NOT AND SWAP2 SWAP1 SWAP2 ADD PUSH1 0x40 ADD SWAP3 SWAP2 POP POP JUMP INVALID LOG2 PUSH5 0x6970667358 0x22 SLT KECCAK256 0xA8 ADD PUSH21 0x5DC7A0C5F9DC67CF6C34B080A7FE078EB6C9666EA7 REVERT DUP3 RETURN XOR 0x1F SWAP7 LOG2 PUSH26 0x64736F6C634300080D0033000000000000000000000000000000 "
    },
    "gasEstimates": {
      "creation": {
        "codeDepositCost": "856600",
        "executionCost": "infinite",
        "totalCost": "infinite"
      },
      "external": {
        "availableRewards(address)": "infinite",
        "claimRewards()": "infinite",
        "getStakedTokens(address)": "infinite",
        "nftCollection()": "infinite",
        "rewardsToken()": "infinite",
        "stake(uint256)": "infinite",
        "stakerAddress(uint256)": "2522",
        "stakers(address)": "6811",
        "withdraw(uint256)": "infinite"
      },
      "internal": {
        "calculateRewards(address)": "infinite"
      }
    },
    "methodIdentifiers": {
      "availableRewards(address)": "f854a27f",
      "claimRewards()": "372500ab",
      "getStakedTokens(address)": "63c28db1",
      "nftCollection()": "6588103b",
      "rewardsToken()": "d1af0c7d",
      "stake(uint256)": "a694fc3a",
      "stakerAddress(uint256)": "94067045",
      "stakers(address)": "9168ae72",
      "withdraw(uint256)": "2e1a7d4d"
    }
  },
  "storageLayout": {
    "storage": [
      {
        "astId": 510,
        "contract": "StakingContract.sol:ERC721Staking",
        "label": "_status",
        "offset": 0,
        "slot": "0",
        "type": "t_uint256"
      },
      {
        "astId": 36,
        "contract": "StakingContract.sol:ERC721Staking",
        "label": "rewardsPerHour",
        "offset": 0,
        "slot": "1",
        "type": "t_uint256"
      },
      {
        "astId": 41,
        "contract": "StakingContract.sol:ERC721Staking",
        "label": "stakers",
        "offset": 0,
        "slot": "2",
        "type": "t_mapping(t_address,t_struct(Staker)33_storage)"
      },
      {
        "astId": 45,
        "contract": "StakingContract.sol:ERC721Staking",
        "label": "stakerAddress",
        "offset": 0,
        "slot": "3",
        "type": "t_mapping(t_uint256,t_address)"
      }
    ],
    "types": {
      "t_address": {
        "encoding": "inplace",
        "label": "address",
        "numberOfBytes": "20"
      },
      "t_array(t_struct(StakedToken)22_storage)dyn_storage": {
        "base": "t_struct(StakedToken)22_storage",
        "encoding": "dynamic_array",
        "label": "struct ERC721Staking.StakedToken[]",
        "numberOfBytes": "32"
      },
      "t_mapping(t_address,t_struct(Staker)33_storage)": {
        "encoding": "mapping",
        "key": "t_address",
        "label": "mapping(address => struct ERC721Staking.Staker)",
        "numberOfBytes": "32",
        "value": "t_struct(Staker)33_storage"
      },
      "t_mapping(t_uint256,t_address)": {
        "encoding": "mapping",
        "key": "t_uint256",
        "label": "mapping(uint256 => address)",
        "numberOfBytes": "32",
        "value": "t_address"
      },
      "t_struct(StakedToken)22_storage": {
        "encoding": "inplace",
        "label": "struct ERC721Staking.StakedToken",
        "members": [
          {
            "astId": 19,
            "contract": "StakingContract.sol:ERC721Staking",
            "label": "staker",
            "offset": 0,
            "slot": "0",
            "type": "t_address"
          },
          {
            "astId": 21,
            "contract": "StakingContract.sol:ERC721Staking",
            "label": "tokenId",
            "offset": 0,
            "slot": "1",
            "type": "t_uint256"
          }
        ],
        "numberOfBytes": "64"
      },
      "t_struct(Staker)33_storage": {
        "encoding": "inplace",
        "label": "struct ERC721Staking.Staker",
        "members": [
          {
            "astId": 24,
            "contract": "StakingContract.sol:ERC721Staking",
            "label": "amountStaked",
            "offset": 0,
            "slot": "0",
            "type": "t_uint256"
          },
          {
            "astId": 28,
            "contract": "StakingContract.sol:ERC721Staking",
            "label": "stakedTokens",
            "offset": 0,
            "slot": "1",
            "type": "t_array(t_struct(StakedToken)22_storage)dyn_storage"
          },
          {
            "astId": 30,
            "contract": "StakingContract.sol:ERC721Staking",
            "label": "timeOfLastUpdate",
            "offset": 0,
            "slot": "2",
            "type": "t_uint256"
          },
          {
            "astId": 32,
            "contract": "StakingContract.sol:ERC721Staking",
            "label": "unclaimedRewards",
            "offset": 0,
            "slot": "3",
            "type": "t_uint256"
          }
        ],
        "numberOfBytes": "128"
      },
      "t_uint256": {
        "encoding": "inplace",
        "label": "uint256",
        "numberOfBytes": "32"
      }
    }
  },
  "userdoc": {
    "kind": "user",
    "methods": {},
    "version": 1
  }
}